:020000040800F2
:1000000000000220311C0008651C0008651C000867
:10001000651C0008651C0008651C00080000000045
:10002000000000000000000000000000651C000847
:10003000651C000800000000651C0008651C000825
:10004000651C0008651C0008651C0008651C00088C
:10005000651C0008651C0008651C0008651C00087C
:10006000651C0008651C0008651C0008651C00086C
:10007000651C0008651C0008651C0008651C00085C
:10008000651C0008651C0008651C000800000000D5
:10009000000000000000000000000000651C0008D7
:1000A000651C0008651C0008651C0008651C00082C
:1000B000651C0008651C0008651C0008651C00081C
:1000C000651C0008651C0008651C0008651C00080C
:1000D000651C0008651C0008651C00080000000085
:1000E000651C0008651C0008651C00080000000075
:1000F000000000000000000000000000651C000877
:1001000000000000651C0008651C0008651C000854
:1001100000000000000000000000000000000000DF
:10012000651C0008651C0008651C0008651C0008AB
:10013000651C000800000000000000000000000036
:10014000000000000000000000000000651C000826
:10015000651C0008651C0008651C0008651C00087B
:10016000651C0008651C000800000000000000007D
:10017000000000000000000000000000000000007F
:1001800000000000651C00080000000000000000E6
:10019000651C0008651C000810B5054C237833B9B0
:1001A000044B13B10448AFF300800123237010BD4A
:1001B000680B00200000000078BD00080C4B43B124
:1001C0000C480D4910B5AFF300800C48036823B903
:1001D00010BD0A48036833B97047094B002BF7D0AC
:1001E000BDE810401847064B002BF5D0184700BF5C
:1001F0000000000078BD00086C0B0020600B0020A0
:1002000000000000154B002B08BF134B9D46A3F5C3
:10021000803A00218B460F461348144A121A04F004
:1002200085FB0F4B002B00D098470E4B002B00D0C6
:1002300098470020002104000D000D48002802D03E
:100240000C4800F01CFF04F069F92000290001F0BF
:1002500027F800F011FF00BF000008000000022096
:100260000000000091120008680B0020D415002047
:100270007F10000800000000024A13680133136079
:10028000704700BF7C0E0020024A136801331360E0
:10029000704700BF300D00200368184708B10B6895
:1002A000036070477047000010B5094B036003F10D
:1002B00020027C330446C0F8BC20C0F8C030BC30FB
:1002C00003F0E0F9204602F09FFE204610BD00BF7B
:1002D00044B70008A0F1BC00E6E7A0F1C000E3E7E6
:1002E00010B5044603F00EFA237E1BB102F0ECFFBA
:1002F0000023237603F032FA204610BD38B50023E0
:10030000037604460D4603F0FDF92046294601F028
:10031000E5F903F023FA204638BD00002DE9F0414D
:10032000084D094F06462868341A384602F0E3FEA5
:100330008046384602F0E3FE94FBF8F02E60BDE8FC
:10034000F08100BF280E0020800E0020074B10B562
:100350001C68074B1868074B241A20461C60FFF7DF
:10036000DDFF054B2044186010BD00BF7C0E00204F
:10037000300D0020DC0C0020D80C0020C36810B524
:1003800004460BB19B689847204610BD38B505461A
:10039000064B45F8283B044602F0D9FC2846FFF7F7
:1003A000EDFF204602F02AFD204638BDD0B70008F8
:1003B00010B50446FFF7EAFF204600F091FE204604
:1003C00010BD000038B5102204460D46002104F08F
:1003D000ADFA0CB12B682360014BE36038BD00BF60
:1003E000B4B0000880B58AB00AA9524C41F8144D47
:1003F00006A8FFF7E7FF06A94F4802F0CCFB06A8C6
:10040000FFF7BCFF0AA906A841F8184DFFF7DAFF6D
:1004100006A94948494C02F0E4FB06A8FFF7AEFFE5
:100420000AA906A841F81C4DFFF7CCFF06A94448CD
:1004300002F0B1FB06A8FFF7A1FF0AA906A841F840
:10044000204DFFF7BFFF06A93D483E4C02F0C9FB17
:1004500006A8FFF793FF03F055F93B4801F07AF83F
:1004600008EE100A03F07AF9DFED387A68EE277AA1
:1004700017EE900A09F088FB02460B46344804F058
:10048000B9FA0AA9334B41F8243D06A8FFF79AFFB1
:1004900003F038F9636B1BB994F83830002B45D161
:1004A0002D48FFF76BFF099B1BB15B682A4806A923
:1004B0009847099B234863634FF47A72002302F044
:1004C0002EFC03F04BF906A8FFF758FF03F01AF9CA
:1004D00042F210711C48214E214D1B4F01F058F87B
:1004E00003F03CF903F00EF942F210711D4801F0DF
:1004F0004FF803F033F931682C680C4403F002F92B
:100500003846214601F0B0F903F028F931682C682B
:100510000C1B03F0F7F82146124801F0A5F903F08F
:100520001DF94FF07E5003F061F9E4E702F0B2FEEE
:10053000B6E700BF790200082C0E002089020008EF
:10054000E00C0020980C0020400C00200000C84265
:10055000C0B000084D030008C00C00209C01002022
:10056000D80C0020780C002010B50446FFF79CFE44
:10057000204600F0B5FD204610BDA0F1BC00F3E719
:10058000A0F1C000F0E7000073B5464D464C474E61
:100590004FF416530093032200230221284602F051
:1005A00091FB22464249284600F064FD414D072157
:1005B0003046FFF7A3FE30463F4E2246294600F064
:1005C00059FD1A213046FFF799FE30463B4E224630
:1005D000294600F04FFD16213046FFF78FFE3046CA
:1005E000374E2246294600F045FD27213046FFF7C9
:1005F00085FE3046334E2246294600F03BFD324D03
:100600001321304602F066FA3046304E2246294623
:1006100000F030FD0F21304602F05CFA30462C4EDF
:100620002246294600F026FD0121304602F052FA0A
:100630003046284E2246294600F01CFD2421304633
:1006400002F048FA2946244D2246304600F012FDB9
:10065000284602F0ABFB2846204B40F8283B1022EE
:10066000002104F063F9012385F8383028461C4D39
:100670001C49224600F0FEFC1C220021284604F002
:1006800055F92846184D052102F098FD284602F03C
:1006900047FD16492246284602B0BDE8704000F0EA
:1006A000E9BC00BF500D002098010020400C002044
:1006B000A9020008E1020008780C0020240C0020A8
:1006C0005C0C0020840B0020392B00082C0E00202D
:1006D000E00C0020D40B0020980C0020D0B70008BC
:1006E000340D00208D030008800E00208B300008A0
:1006F0007FB50023072855D8DFE800F00413202D2C
:100700003A54544700932A4B2A481A6B42F001028C
:100710001A631B6B03F001030093009B07B05DF8A5
:1007200004FB0193224B24481A6B42F002021A6325
:100730001B6B03F002030193019BEFE702931C4B39
:100740001E481A6B42F004021A631B6B03F0040389
:100750000293029BE2E70393154B19481A6B42F090
:1007600008021A631B6B03F008030393039BD5E78E
:1007700004930F4B13481A6B42F010021A631B6B61
:1007800003F010030493049BC8E70593084B0E483D
:100790001A6B42F080021A631B6B03F0800305930F
:1007A000059BBBE7094802F091FF0020B6E700BFB8
:1007B00000380240000002400004024000080240ED
:1007C000000C024000100240001C0240D4B200089D
:1007D000431C10B5044604D174220649064802F0B1
:1007E00063FF2046002100F07FFD04F00F0401208C
:1007F000A04010BDF5B2000838B3000870B504463B
:100800004B1C0E46218216D0C1F30310FFF770FF78
:1008100005463046FFF7DCFF238A074A656103F08F
:100820000F03206052F82330A36105F1100318353F
:100830006360A560E56070BDD0B40008B0F9100039
:1008400000F0EABD10B58369446971B9216893FA73
:10085000A3F2B2FA82F20320520000FA02F221EA75
:10086000020293FAA3F3226010BD226893FAA3F167
:10087000B1FA81F193FAA3F30320490000FA01F1E0
:10088000B3FA83F322EA01025B00012101FA03F3C8
:100890001343236010BD00004C22F0B54243184EB4
:1008A000DFF868C0131D3344074600244FF0010EE3
:1008B00016448C4205D139461248BDE8F04002F09A
:1008C00005BF32680EFA04F5154216D01A6BDCF833
:1008D00014000EFA02F202420FD09D69CCF81420E7
:1008E000186850B12B691A42074B08BF02211B68D8
:1008F00018BF0121BDE8F040184701340433D8E7A0
:10090000A00E002072B30008B4100020003C01408B
:1009100006210846FFF7C0BF05210846FFF7BCBF08
:1009200001210420FFF7B8BF01210320FFF7B4BF66
:1009300001210220FFF7B0BF01210846FFF7ACBF3D
:1009400001210020FFF7A8BF012910B518D11B4CC9
:10095000838952B1A26803F00F0399401143A1604B
:10096000836843F00103836010BDA26803F00F03A6
:10097000994022EA0101A160836823F00103F2E7B4
:100980000229F1D10D4983895AB1CC6803F00F03D4
:10099000012202FA03F32343CB60836843F002038E
:1009A000E1E7CA6803F00F03012404FA03F322EA23
:1009B0000303CB60836823F00203D4E7003C0140CB
:1009C000B0F90C3099B270B501F00F0606F00C04C6
:1009D00004F1804404F59C3401F00301A56889000A
:1009E0000F228A40C3F3031325EA02058B402B43F1
:1009F000A3600F4B01221968B2401143196084684B
:100A0000E50742BF996811439960A10742BFD968C1
:100A10000A43DA6090F90030002B08DB5909012203
:100A200003F01F0302FA03F3024A42F8213070BDBB
:100A3000003C014000E100E02DE9F04F92464A1CE5
:100A400085B080460C4666D000220392334A344F6C
:100A5000516C41F480415164526C02F48042039223
:100A6000039A04F00F090C2202FB0972C4F303106D
:100A70005568062D47D8DFE805F0043A3C3E404271
:100A80004400284E0193FFF733FE0C2101FB09F1CE
:100A90007A1857F801E0244FA8F80C404C2169431C
:100AA00001247B5892F90820C8F8045004FA0EF487
:100AB0004FF0000B1C4388F80020C8F808B07C50A9
:100AC000132101FB05E507EB8501019B4B60174BEB
:100AD000C861C3F800A0164BC1F834909B6810326F
:100AE000404643F82260FFF76BFF584610E0114E76
:100AF000C8E7114EC6E7114EC4E7114EC2E7114ECA
:100B0000C0E7114EBEE7114802F0E0FD4FF0FF30A4
:100B100005B0BDE8F08F0846FAE700BF0038024094
:100B20009CB3000841090008A00E0020B41000206A
:100B300000ED00E039090008310900082909000822
:100B40002109000819090008110900084BB3000821
:100B50008389184A03F00F03012110B501FA03F34A
:100B60009468DB431C409460D4681C40D4601468D3
:100B70002340136090F90030002B0CDB5A0903F07E
:100B80001F0301FA03F320320B4941F82230BFF36F
:100B90004F8FBFF36F8F90F90030002B09DB5A099C
:100BA000012103F01F0301FA03F36032024941F807
:100BB000223010BD003C014000E100E0838903F0D9
:100BC0000F020C235343104A70B54468D658FFF700
:100BD000BFFF4C210D4A6143012000FA06F5505831
:100BE000132303FB046320EA0500505002EB83004B
:100BF00000214160981D0C3302EB800002EB83035F
:100C00004160596070BD00BF9CB30008A00E002079
:100C100070B5134C23681A69950707D5DA689007F1
:100C200004D56FF002021A6102F06AFB23681A69A8
:100C3000510713D5DA68520710D56FF00402094E38
:100C40001A615D6A3368EB1AB3F57A7F06D301F057
:100C500023F8236805F57A729A63356070BD00BF8A
:100C600070150020B810002030B589B001A903A884
:100C700001F0D6FA01F0A4FA00230293254B01906B
:100C80001A6C254C42F008021A641A6C02F0080231
:100C90000292029A1A6A42F008021A621A6A22F052
:100CA00008021A62069AA3F50B3323604FF0FF3354
:100CB000E3601A4B002A2AD1B0FBF3F0013800257B
:100CC000606015482561A560656101F089FB144BE2
:100CD000144A9B681048C3F80821134B4FF4802234
:100CE0005A60294601F060FC04210B4801F05CFCCD
:100CF00023680E4A596A1160126802F57A729A6383
:100D0000DA68284642F00402DA6009B030BD4000DB
:100D1000D2E700BF003802407015002040420F00AB
:100D200000ED00E0110C000800E100E0B810002028
:100D300010B588B002F0E6FC052101A802F03EFAE9
:100D40000424039B019A1A60962002F05DFD019B2A
:100D5000049A1B041360962002F056FD013CF0D16A
:100D60000424039B019A1A604FF4C87002F04CFDF2
:100D7000019B049A1B0413604FF4C87002F044FDF9
:100D8000013CEED1DCE7000070B50D46A0B0044692
:100D900002F0B8FC2B4622468021684605F076FD1D
:100DA000051E03DC02F0DAFC20B070BD094B1B68A5
:100DB00023B903220221084800F014FE064E002445
:100DC0001DF804103046013400F020FFA542F7D191
:100DD000E8E700BF34120020201500200FB407B54B
:100DE00004A951F8040B0191FFF7CEFF03B05DF8A1
:100DF00004EB04B0704708B501F000FE00F034FFCA
:100E000001F0F2FDBDE8084001F0F8BD08B5084B5F
:100E10001B685BB902210748032200F0E3FD4FF491
:100E200016510448BDE8084000F086BE08BD00BF6A
:100E30003412002020150020022810B501DC00200B
:100E400010BDC31E0B4A52F82300002142F82310A4
:100E500030B902F06BFD092303604FF0FF3010BD85
:100E600003685B699847041EE9DA02F05FFD64429B
:100E70000460F2E7BC1000200228F8B50D461446C5
:100E80000EDC134B1B680BB9FFF7C0FF114E2F1977
:100E9000BD4210D015F8011B304600F0B7FEF7E751
:100EA00003380D4B53F8200038B902F03FFD0923F9
:100EB00003604FF0FF342046F8BD0368DB689847B5
:100EC000041EF8DA02F032FD63420360F3E700BF6C
:100ED0003412002020150020BC100020022810B57C
:100EE0000C460BDC104B1B680BB9FFF78FFF0F484C
:100EF00000F07AFE20700124204610BD03380C4B10
:100F000053F8200030B902F011FD092303604FF0BF
:100F1000FF34F1E703689B689847041EECDA02F09F
:100F200005FD63420360E7E734120020201500202E
:100F3000BC100020022810B516DD03380B4B53F807
:100F400020402CB902F0F2FC09230360204610BDBA
:100F500023682046DB699847041EF7DA02F0E6FCB6
:100F6000644204600024F1E70124EFE7BC10002094
:100F7000022810B506DC02F0D9FC1D2303604FF0F7
:100F8000FF3010BD03380A4B53F8200018B902F0A7
:100F9000CDFC0923F2E703681B699847041E04DAB5
:100FA00002F0C4FC64420460E9E7204610BD00BFC3
:100FB000BC100020022838B50D4604DC4FF4005365
:100FC0004B60002038BD03380D4B53F8204034B936
:100FD00002F0ACFC092303604FF0FF3038BD2368FA
:100FE0002046DB699847002814BF4FF400534FF4A4
:100FF00000436B60236820469B6A98472861E0E7BE
:10100000BC10002008B5012000F036F80C4A136827
:1010100010B51844EFF30881884205D3094B0C2220
:101020001A604FF0FF3010BD07490C6824B1074922
:10103000096821448842F1D21060184610BD00BFF3
:10104000A0010020D0150020C4110020C8110020EC
:10105000074C08B523680546986802F0A1FD23688F
:10106000D86802F09DFD0DB1FFF762FEFEE700BFFC
:10107000A80100200120704708B5FFF7E9FF012013
:101080007047002103F05EBD1FB504220C463A23D1
:101090000DEB020101900DF109008DF8083003F00D
:1010A00047FB214602A802F0BFFE044638B1019872
:1010B0000368DB69984710B12046FFF7E2FF20463E
:1010C00004B010BD7047704708B5FFF7FBFF08BDBF
:1010D00008B5FFF7F8FF08BD08B103F0CFBA7047B5
:1010E000FFF7FABF034610B553F8042B044602B9C4
:1010F000036022689A4204D05B220349034802F04D
:10110000D3FA206810BD00BF5CB40008A4B4000886
:1011100010B504460948FFF7E5FF0023084A1946C1
:1011200052F82300A04208BF42F823100133402B9D
:10113000F6D10248FFF7D6FF10BD00BFBC1100205A
:10114000BC1000202DE9FF4789464049064603F0C0
:101150001BFE044628B9FFF759FE204604B0BDE83F
:10116000F0873B49304603F00FFE18B9FFF74EFEFB
:101170000124F2E73749304603F006FE18B9FFF7BD
:1011800045FE0224E9E73448344DFFF7ABFF002465
:10119000A84655F82470002F40D00134402CF8D1D7
:1011A00002F0C4FB182303602B48FFF79BFF0EE0FF
:1011B000314602A802F08EF902A802F0CFF90646E5
:1011C00040B902F0B3FB0223036045F824604FF0FE
:1011D000FF34C2E702A802F0AFF9074602A81FB128
:1011E00002F0B3F901902BE002F09DF906460028C9
:1011F000E7D0036802A8D3F808A002F089F929F41F
:101200008033024601A93046D0470646C0B102F0FD
:101210008DFB7642066045F82470D8E74FF0FF3327
:101220000D4845F82430FFF75DFF337801973A2BDE
:10123000BED10422711C02A803F07AFA029B01932A
:10124000019B48F82430033487E700BFC0B400088E
:10125000C7B40008B8B40008BC110020BC100020BE
:1012600070477047074B08499A68084810B5043A18
:1012700052F8044F41F8044F8142F9D14FF0005227
:101280009A6010BD00ED00E0FCFFFF1F94010020FC
:1012900008B5FFF7E7FFFFF7AEFDFFF7E2FF08BD78
:1012A00008B5FFF7DDFFBDE80840FFF79BB830B594
:1012B000C36891FAA1F4B4FA84F491FAA1F1032578
:1012C000B1FA81F1640005FA04F4490023EA040349
:1012D00002FA01F11943C16030BD012A02D0022A8D
:1012E00018BF0022FFF7E3BF2DE9F0410E46411C75
:1012F000044604D13E224449444802F0D5F904F0A2
:101300000F08434BC4F3031053F82850FFF7F0F9CC
:1013100006F007070446836895FAA5F1B1FA81F152
:1013200095FAA5F20320490000FA01F1B2FA82F21F
:1013300023EA01035200022101FA02F21343A360DF
:1013400087425AD8DFE807F05E1D021DB8F1070F8B
:10135000C6F303203BD9626A2B0A93FAA3F1B1FAD0
:1013600081F193FAA3F34FF00F0EB3FA83F38900E0
:101370000EFA01F19B0022EA010200FA03F3134383
:1013800063623B46226895FAA5F0B0FA80F095FAC0
:10139000A5F14FF0030EB1FA81F140000EFA00F012
:1013A000490022EA00028B40013F1343012F2360D2
:1013B00005D8636832074CBF2B43AB436360C6F369
:1013C000011229462046BDE8F041FFF786BF226A98
:1013D00095FAA5F3B3FA83F395FAA5F14FF00F0E42
:1013E000B1FA81F19B000EFA03F3890022EA0302AD
:1013F00000FA01F313432362C3E767220249054859
:1014000002F052F90023BDE710B5000838B3000818
:10141000D0B4000851B50008431C70B506460D460F
:1014200004D188221B491C4802F03EF906F00F0245
:101430001A4BC6F3031053F82240FFF759F904FB87
:1014400004F2016802EB42030B40B3FBF2F3013BF1
:10145000012B05D8EB1E022B436809D823434360B8
:10146000032D08D101222146BDE87040FFF735BFAA
:1014700023EA04034360012DF4D0052D01D0022D91
:1014800001D10222EFE721460022BDE87040FFF7BC
:101490000EBF00BF10B5000838B30008D0B4000874
:1014A00030B507EE101A284B02681A60B5EEC07A04
:1014B000F1EE10FA89B0054628D4F7EE007AB4EEC2
:1014C000677AF1EE10FAC8BFB0EE677AD5ED037A0D
:1014D000F8EE677A602267EE877A0192FCEEE77A8F
:1014E000AA68C5ED047A17EE903AB3FBF2F30293C3
:1014F0000023039305930693049307932B7D013BED
:10150000032B16D8DFE803F01B0517199FED0F7AA0
:10151000DCE70424224601A90B4800F0C1FF10B10A
:101520000B4802F0D3F86B7D074821464BB101F020
:1015300049F809B030BD0824ECE70C24EAE70024A0
:10154000E8E701F01BF8F4E7CC11002000000000F0
:10155000DEB50008C368ABB107EE903AD0ED046A7F
:10156000B8EE677AF8EE666AC6EE877AB7EE007A6A
:10157000F4EE477AF1EE10FAC8BFF0EE477A17EEB4
:10158000900A7047DFED017AF9E700BF0000000024
:101590002DE9F0474C4C0268226086B000230E46CD
:1015A00000930546FFF7D6FF116A41F21113194265
:1015B000074608D1116A40F24443194202BF13683A
:1015C00023F001031360694601A800F029FE3F489B
:1015D0002968002380465FFA83F9013350F83920E7
:1015E0008A42F8D111B93A4802F070F808EBC908FC
:1015F00098F804306BBB00F0E3FD0090049800996C
:101600000123AB60334B48BBB1FBF3F3013B636099
:1016100006F1FF3E4FF0000962682E4BC4F80CE063
:101620004FEA410CCA46BCFBF3FCB1FBF3F14FF6A9
:10163000FE787346B3F5803F14D2B2F5803F11D2E5
:10164000BAF1000F00D06260B9F1000F1ED0E36064
:101650001CE000F0CDFD00900598D0E74A00B2FBF9
:10166000F3F3D3E7AB685B00AB6030BB01FB03F285
:10167000BEFBF3F3434502F1FF3221D8B2F5803FC0
:101680001ED315486260E36002F020F800230E4884
:101690002361A36000F0BEFE10B10F4802F016F8FF
:1016A000EE6039462846FFF7FBFE2268136843F0D8
:1016B0000103136006B0BDE8F0870CFB03F2D7E727
:1016C0004FF00109CA46B5E7CC110020F8B5000873
:1016D000C9B5000840420F00DEB5000870B50E46DF
:1016E000044688B05449304601F0A8FD206001301E
:1016F00004D12E225149524801F0D6FF4E493046BE
:1017000001F0B8FD431C054604D132224B494D4837
:1017100001F0CAFFC5F304334B4A23752368C5F3B0
:101720004045934265754FF000021AD10092474A36
:10173000516C41F001015164526C02F001020092BF
:10174000009A434A934229D1002305933F4B5A6C98
:1017500042F480325A645B6C03F480330593059B3A
:1017600058E0B3F1804F0BD10192384A116C41F02F
:1017700001011164126C02F001020192019AE0E78A
:1017800034498B421AD10292304A116C41F0020165
:101790001164126C02F002020292029A2E4A9342E3
:1017A0001AD100230693294B5A6C42F400325A6432
:1017B0005B6C03F400330693069B2BE027498B42B6
:1017C0001AD10392214A116C41F004011164126C88
:1017D00002F004020392039A214A93421AD1002391
:1017E00007931A4B5A6C42F480225A645B6C03F4E0
:1017F00080230793079B0DE01A498B42A1D1134B1D
:1018000004921A6C42F008021A641B6C03F008037D
:101810000493049B0849304601F0D4FC0023E360A4
:1018200023610123A680A36044F620612046FFF7D0
:10183000AFFE08B070BD00BFDCB0000853B50008B3
:1018400098B50008B0B5000800000140003802401B
:1018500000400140000400400044014000080040F6
:1018600000480140000C004007EE901AB8EEE77AFD
:10187000D0ED037AF8EE677AC7EE276A16EE901A73
:10188000FFF70EBE42681649920110B50468545025
:10189000531882685A60C2689A600269DA604269C5
:1018A0001A61026A9A610022DA84DA619A84DA851E
:1018B0009A85B0F91A2001320AD108225A611846D5
:1018C00000F0ADFF58B10748BDE8104001F0FEBE82
:1018D000B0F9182001320CBF04220C22EEE710BD33
:1018E000A012002040B600084368094A9B0182B05C
:1018F000D3581A68120706D5002201921A6801927D
:101900005A680192019A1868C0F3401002B07047FB
:10191000A01200204368034A9B01D3581868C0F303
:10192000C0107047A0120020002808DB42090123E4
:1019300000F01F0003FA00F0014B43F8220070474B
:1019400000E100E000280DDB4309012200F01F0048
:1019500002FA00F02033044A42F82300BFF34F8F0D
:10196000BFF36F8F704700BF00E100E0F7B5154E81
:10197000074656F8200010B3134CBD0163591A688E
:10198000120606D5DB68190603D5104B01211B682A
:10199000984763591A68920608D5DB68980605D5FA
:1019A0000A4B56F827001B680021984763591A68AC
:1019B000110704D55A69D20744BF5B68019303B08D
:1019C000F0BD00BF0C120020A01200200812002061
:1019D0000020FFF7CBBF0120FFF7C8BF0520FFF7AE
:1019E000C5BF0000F0B50E4685B0044649493046F3
:1019F000154601F023FC48490746284601F01EFC25
:101A00000146384601F0FCFB2060013004D13E2243
:101A10004249434801F048FE2368424A93421ED09F
:101A200002F5806293425ED0A2F5504293422BD1E0
:101A30003D4B1A6A42F400321A621A6A22F40032EA
:101A40001A62002202921A6C42F400321A641B6C71
:101A500003F400330293029B0123636014E0324BD2
:101A60005A6A42F010025A625A6A002122F01002A9
:101A70005A6201915A6C42F010025A645B6C6160C8
:101A800003F010030193019B2249304601F09AFBB9
:101A90002149284601F096FB721C03D001213046F3
:101AA000FFF7BAFC6B1C03D001212846FFF7B4FCFA
:101AB0004FF41653A3600023E36023616361236244
:101AC000268365832046FFF7DDFE2268174B9A4286
:101AD00007D1174B174801221A6021464C2202F009
:101AE00027FE05B0F0BD104B5A6A42F020025A6240
:101AF0005A6A22F020025A62002203925A6C42F083
:101B000020025A645B6C03F020030393039B0523BC
:101B1000A3E700BF80B200082CB2000858B6000846
:101B2000AFB60008001001400038024000440040F9
:101B300034120020201500208160FFF7A3BE0000B2
:101B4000034B19604168034B43F82120704700BFE5
:101B5000081200200C1200204368012B30B416D06C
:101B6000052B17D0CBB91B4C25201B4D9B01D2B1A7
:101B7000EA58D368A1B943F02003D360174B00F1B2
:101B800010029B6843F8224030BCFFF7CDBE144CD6
:101B90002620EAE7134C4720E7E700242046E4E745
:101BA00043F08003E9E7EB58DA6849B922F02002F4
:101BB000DA60DB6813F0800F09D130BCFFF7C2BEDA
:101BC00022F08002DA60DB6813F0200FF4E730BC0B
:101BD000704700BFD1190008A012002000ED00E0FE
:101BE000D7190008DD19000838B5446805462846AD
:101BF000FFF77AFE0028FAD0A401034B1B5958685E
:101C0000C0F3080038BD00BFA012002070B54568C1
:101C100006460C463046FFF77DFE0028FAD0AD019F
:101C2000024B5B59C4F308045C6070BDA012002035
:101C3000DFF820D0002103E0074B5B58435004310C
:101C40000648074B42189A42F6D300F02BFEFEF7E7
:101C5000D9FA70470000022084BD000898010020D6
:101C6000640B0020FEE7000008B50A4B1A6842F436
:101C700000721A601A6842F480621A601A6842F4AC
:101C800080721A600F20FEF7EFFF00F013F80020BB
:101C900008BD00BF003C0240024A136801331360D4
:101CA000704700BF6C150020014B1868704700BFDB
:101CB0006C150020704700000368F7B50446D8078C
:101CC0003BD42368990700F1868023681E0700F142
:101CD000D18023685D072AD5002301938E4B8F4D59
:101CE0001A6C42F080521A641B6C03F0805301930B
:101CF000019B2B6843F480732B60FFF7D5FF0646EA
:101D00002B68DA0540F1D880A368834D012B40F0A1
:101D1000DA802B6F43F001032B67FFF7C5FF7E4D81
:101D2000064641F288372B6F9B0740F1ED80A26990
:101D3000002A40F0F980002015E0774B9A6802F005
:101D40000C02042A07D09A6802F00C02082A0CD16F
:101D50005B685A0209D5704B1B689B03B1D5636859
:101D6000002BAED1012003B0F0BD63686A4DB3F51E
:101D7000803F11D12B6843F480332B60FFF794FF31
:101D8000654D06462B689F039BD4FFF78DFF801B94
:101D90006428F7D90320E6E7B3F5A02F04D12B6818
:101DA00043F480232B60E5E72A6822F480322A601E
:101DB0002A6822F480222A60002BDFD1FFF774FF0B
:101DC00006462B6898037FF57CAFFFF76DFF801BFD
:101DD0006428F6D9DEE7504B9A6812F00C0F07D052
:101DE0009A6802F00C02082A16D15B68590213D4D3
:101DF000494B1A68920702D5E268012AB2D11868E5
:101E0000F82292FAA2F2B2FA82F122698A4020F014
:101E1000F8010A431A6058E7E268414BDAB101223F
:101E20001A60FFF741FF3C4D06462B689B070CD517
:101E30002968F82393FAA3F3B3FA83F22369934052
:101E400021F0F80213432B603FE7FFF72DFF801BC3
:101E50000228EAD99EE71A60FFF726FF2E4D0646B4
:101E60002B689F077FF531AFFFF71EFF801B02280D
:101E7000F6D98FE762692B4B7AB101221A60FFF71E
:101E800013FF254D06466B6F98073FF522AFFFF70E
:101E90000BFF801B0228F6D97CE71A60FFF704FFCE
:101EA0001D4D06466B6F99077FF513AFFFF7FCFEDC
:101EB000801B0228F6D96DE7FFF7F6FE801B02288B
:101EC0007FF61EAF66E7052B04D12B6F43F00403AA
:101ED0002B671EE72A6F22F001022A672A6F22F081
:101EE00004022A67002B7FF418AFFFF7DDFE41F2F2
:101EF000883706462B6F98077FF519AFFFF7D4FE9A
:101F0000801BB842F6D945E7FFF7CEFE801BB842EA
:101F10007FF609AF3EE700BF003802400070004086
:101F200000004742800E47422B4DAB6803F00C0384
:101F3000082B3FF417AF294E0023022A33603ED10D
:101F4000FFF7B2FE07462B68990132D447F6C077F7
:101F500097FAA7F74FF44032B7FA87F792FAA2F24E
:101F60004FF07061B2FA82F091FAA1F1226AE3694E
:101F70001343626A02FA07F7A26A5208013A8240E2
:101F80003B431343E26A144CB1FA81F102FA01F1C6
:101F90000B436B6001233360FFF786FE0546236821
:101FA0009A013FF5C8AEFFF77FFE401B0228F6D925
:101FB000F0E6FFF779FEC01B0228C4D9EAE6FFF776
:101FC00073FE04462B689B017FF5B5AEFFF76CFEF0
:101FD000001B0228F6D9DDE60038024060004742C7
:101FE000194A936803F00C03042B10B503D0082B97
:101FF00003D0164810BD164810BD5168536801F053
:102000003F0113F4800F47F6C074536894FAA4F0AC
:10201000B0FA80F003EA040323FA00F314BF0C487B
:102020000A48B0FBF1F05843074B4FF440325B686D
:1020300092FAA2F2B2FA82F203F44033D3400133AF
:102040005B00B0FBF3F010BD003802400024F40048
:1020500000127A00564B1A6802F00F028A422DE9EC
:10206000F04105460E4630D32A68940737D4D0078E
:102070003DD44F4B1A6802F00F029642C0F08880A0
:102080002A68510700F18C80130707D5494A29694E
:10209000936823F4604343EAC1039360FFF7A0FF12
:1020A000444BF0229B6892FAA2F2B2FA82F203F059
:1020B000F003D340404AD35CD840404B18600F2017
:1020C000FEF7D2FD0020BDE8F081CAB21A701B688D
:1020D00003F00F039942C7D00120BDE8F0813549D4
:1020E000A8688B6823F0F00303438B60BFE76A683E
:1020F000304B012A1ED11B6813F4003FECD02D4C4D
:10210000A36823F003031343A360FFF7CDFD6B68BF
:10211000012B074641F2883816D1A36803F00C035F
:10212000042BA6D0FFF7C0FDC01B4045F5D9032006
:10213000BDE8F081911E01291B6802D813F0007FD1
:10214000DCE713F0020FD9E7022B0AD1A36803F0F2
:102150000C03082B8DD0FFF7A7FDC01B4045F5D918
:10216000E5E7032B0FD1A36803F00C030C2B80D001
:10217000FFF79AFDC01B4045F5D9D8E7FFF794FD5E
:10218000C01B4045D3D8A36813F00C0FF6D170E7FD
:10219000F2B21A701B6803F00F039E429CD16FE7E6
:1021A0000449E8688B6823F4E05303438B606BE7D2
:1021B000003C024000380240CBB60008A4010020D9
:1021C000084B4FF4E0529B6892FAA2F2B2FA82F204
:1021D00003F4E053D340044AD35C044A1068D84067
:1021E000704700BF00380240DBB60008A4010020A1
:1021F000084B4FF460429B6892FAA2F2B2FA82F264
:1022000003F46043D340044AD35C044A1068D840C6
:10221000704700BF00380240DBB60008A401002070
:102220000F2303600B4B9A6802F0030242609A6826
:1022300002F0F00282609A6802F4E052C2609B6889
:10224000DB0803F4E0530361034B1B6803F00F0347
:102250000B60704700380240003C0240036A23F0E4
:1022600001030362036A70B5446882690D6822F055
:1022700073022A438D6823F002032B430A4DA842C0
:102280000BD1CD688E6923F008032B434D6924F4EC
:102290004074354323F004032C43446082614A6850
:1022A0004263036270BD00BF00000140036A23F473
:1022B00080730362036A70B54468C2690D6822F0D6
:1022C00073022A438D6823F4007343EA05230B4D00
:1022D000A8420DD1CD688E6923F4006343EA05233B
:1022E0004D6924F44054354323F4806344EA0514D3
:1022F0004460C2614A68C263036270BD000001406D
:10230000036A23F480530362036A30B54468C269E8
:102310000D6822F4E64242EA05228D6823F4005358
:1023200043EA0533064DA84202BF4D6924F48044B8
:1023300044EA85144460C2614A680264036230BDA5
:102340000000014070477047224A036890420ED057
:10235000B0F1804F0BD0A2F57C42904207D002F53D
:102360008062904203D002F58062904219D14A689F
:1023700023F070031343174A904204D1CA6823F430
:102380004073134318E0B0F1804FF7D0124A9042E7
:10239000F4D002F580629042F0D002F58062904263
:1023A000ECD00E4A9042E9D002F580629042E5D02E
:1023B00002F580629042E1D003608B68C3620B68D3
:1023C0008362044B984204BF0B690363012343619A
:1023D000704700BF00000140000400400040014081
:1023E00010B50446A0B190F8393003F0FF021BB9D4
:1023F00080F83820FFF7A6FF022384F839302068E0
:10240000211DFFF7A1FF012384F83930002010BD02
:10241000012010BD10B50446A0B190F8393003F08A
:10242000FF021BB980F83820FFF78DFF022384F8E4
:1024300039302068211DFFF787FF012384F83930E8
:10244000002010BD012010BD036A23F010030362B9
:10245000036A70B5446882690D6822F4E64242EA74
:1024600005228D6823F0200343EA05130B4DA84293
:102470000DD1CD688E6923F0800343EA05134D69C1
:1024800024F44064354323F0400344EA8504446067
:1024900082614A688263036270BD00BF0000014030
:1024A00038B590F83830012B04464FF0020025D0A3
:1024B000012384F8383084F839000C2A18D8DFE872
:1024C00002F0071717171E1717172F1717174000B7
:1024D0002068FFF7C3FE236809699A6942F0080281
:1024E0009A619A6922F004029A619A690A439A6190
:1024F0000123002084F8393084F8380038BD206882
:10250000FFF7A2FF236809699A6942F400629A61A1
:102510009A6922F480629A619A6942EA0122E6E7A6
:102520002068FFF7C3FE23680969DA6942F00802F0
:10253000DA61DA6922F00402DA61DA690A43DA61FF
:10254000D6E72068FFF7DCFE23680969DA6942F400
:102550000062DA61DA6922F48062DA61DA6942EAF9
:102560000122ECE7036A10B501248C4023EA04033E
:102570000362036A8A401A43026210BD10B5044622
:1025800001220068FFF7EEFF2368064A934202BF6C
:102590005A6C42F400425A641A6842F001021A600E
:1025A000002010BD00000140FFF7E8BF036A10B52E
:1025B00004248C4023EA04030362036A8A401A431A
:1025C000026210BD10B5044604220068FFF7EEFF5A
:1025D00023685A6C42F400425A641A6842F00102BD
:1025E0001A60002010BD00002DE9F0470668C2689F
:1025F0003369C16923F4405313433361044683684C
:102600000069F2680343606922F41642034322F032
:102610000C020B431343F3607369A26923F4407304
:102620001343B1F5004F73617A4B7CD19E4203D0C6
:1026300003F580639E4244D1FFF7DAFD192505FBBF
:1026400000F360684FF064094000B3FBF0F3B3FBA4
:10265000F9F34FEA0318FFF7CBFD636868435B00AB
:10266000B0FBF3F7FFF7C4FD636868435B00B0FBA2
:10267000F3F3B3FBF9F309FB1373DB003233B3FB62
:10268000F9F35B0003F4F877FFF7B2FD6268684383
:102690005200B0FBF2FAFFF7ABFD636868435B00E2
:1026A000B0FBF3F3B3FBF9F309FB13A3DB00323305
:1026B000B3FBF9F303F0070343443B44B360BDE8C5
:1026C000F087FFF77DFD192505FB00F360684FF0EB
:1026D00064094000B3FBF0F3B3FBF9F34FEA0318CE
:1026E000FFF76EFD636868435B00B0FBF3F7FFF72D
:1026F00067FD636868435B00B0FBF3F3B3FBF9F37A
:1027000009FB1373DB003233B3FBF9F35B0003F413
:10271000F877FFF755FD626868435200B0FBF2FAA4
:10272000FFF74EFDB9E79E4202D03B4B9E4240D19F
:10273000FFF75EFD676819254FF0640905FB00F39C
:10274000BF00B3FBF7F3B3FBF9F31F01FFF750FD35
:10275000636868439B00B0FBF3F8FFF749FD6368CB
:1027600068439B00B0FBF3F3B3FBF9F309FB13835E
:102770001B013233B3FBF9F303F0F008FFF738FD28
:10278000626868439200B0FBF2FAFFF731FD6368BC
:1027900068439B00B0FBF3F3B3FBF9F309FB13A30E
:1027A0001B013233B3FBF9F303F00F0343EA0803D1
:1027B00083E7FFF705FD676819254FF0640905FBFE
:1027C00000F3BF00B3FBF7F3B3FBF9F31F01FFF70F
:1027D000F7FC636868439B00B0FBF3F8FFF7F0FC7D
:1027E000636868439B00B0FBF3F3B3FBF9F309FBA9
:1027F00013831B013233B3FBF9F303F0F008FFF747
:10280000DFFC626868439200B0FBF2FAFFF7D8FC85
:10281000BDE700BF0010014000140140704710B533
:10282000044640B390F8393003F0FF021BB980F83A
:102830003820FFF7F3FF2268242384F83930D36867
:1028400023F40053D3602046FFF7CEFE23681A69B5
:1028500022F490421A615A6922F02A025A61DA6817
:1028600042F40052DA6000202023E06384F839301B
:1028700084F83A3010BD012010BD7FB50F230193BD
:10288000022302934FF480520023032101A80393F3
:1028900004920593FFF7DEFBB0FA80F0400907B021
:1028A0005DF804FB0F49D1F8883043F47003C1F898
:1028B00088300D4B1A68002042F001021A609860BF
:1028C0001A6822F0847222F480321A60074A5A6031
:1028D0001A6822F480221A60D8604FF000638B607F
:1028E000704700BF00ED00E00038024010300024C7
:1028F00000B58FB01C4B002100911A6C42F0805241
:102900001A641B6C194A03F080530093009B0191D9
:10291000136823F4404343F400431360136803F443
:1029200040430193019B01230293C0B94FF48033CC
:102930000393022308934FF48003099304230A931B
:102940000C930823C8220DEB03000B920D93FFF7A5
:10295000B3F938B9FFF791FF0FB05DF804FB4FF4FE
:10296000A023E5E70020F7E70038024000700040B0
:1029700010B58EB000241A4B00941A6C42F08052AD
:102980001A641B6C174A03F080530093009B019458
:10299000136823F4404343F4004313601368039423
:1029A00003F440430193019B099403230293012301
:1029B0000593102306930223C822089308230B9241
:1029C0000DEB030004220A930C920D93FFF774F9A8
:1029D00018B9FFF752FF0EB010BD2046FBE700BF4D
:1029E000003802400070004008B50120FFF780FF6A
:1029F00018B9FFF7BDFF00B9FEE708BD174A18492F
:102A0000936803F00C03042B10B50DD0082B0DD0E8
:102A1000144B0B60114B144A9B68C3F30313D25C35
:102A20000B68D3400B6010BD104BF2E75468506840
:102A300052686302C2F3881200F03F004CBF0B4B98
:102A4000084BB3FBF0F35343044A5268C2F301420C
:102A500001325200B3FBF2F3DBE700BF0038024063
:102A6000A40100200024F400CBB6000800127A0074
:102A700070470000014B586A704700BF000C0040CF
:102A8000054B1B68DA6822F00202DA605863DA68E4
:102A900042F00202DA60704770150020034B1A689A
:102AA000536943F002035361704700BF7015002063
:102AB000034B1A68D36823F00203D360704700BF4A
:102AC00070150020024B1B686FF002021A617047FC
:102AD000701500202DE9F0410546154B45F8043BE3
:102AE00004460F46102604F120081C220021284627
:102AF00001F01CFF32460021404601F017FF32462C
:102B0000002104F1300001F011FF3246002104F1F0
:102B1000400001F00BFF2346064A39464046FDF7C8
:102B20008BFF2846394600F036FB2046BDE8F08191
:102B300034B70008592C000810B5084B044640F87B
:102B4000203BFEF73BF804F14000FDF717FC04F1D1
:102B50003000FDF713FC204610BD00BF34B700085D
:102B600010B50446FFF7E8FF2046FEF7B9FA204605
:102B700010BD884238B504460D460AD0FDF7FEFB6D
:102B80003CB1EB681BB15B68294620469847EB686F
:102B9000E360204638BDF0B50F4685B0044600F02E
:102BA000B1FDFD6804F13006203465B13946304688
:102BB000FFF7DFFF012201212046FDF7C5FE00F0EF
:102BC000CDFD05B0F0BD10222946684601F0AEFEED
:102BD00069463046FFF7CDFF6846FDF7CFFB2A4632
:102BE000E9E7F0B50F4685B0044600F08BFDFD68BF
:102BF00004F14006203465B139463046FFF7B9FF8D
:102C0000012202212046FDF79FFE00F0A7FD05B03E
:102C1000F0BD10222946684601F088FE694630461C
:102C2000FFF7A7FF6846FDF7A9FB2A46E9E7000082
:102C3000C36810B504462BB940F20E22044905487A
:102C400000F032FDE36820461B68BDE810401847DD
:102C5000E3B6000827B70008012908B502D0022909
:102C600006D008BDC36B13B13030FFF7E1FF08BDDC
:102C7000C36C002BFBD04030F7E703681B69184793
:102C800003689B69184703689B6A18474FF0FF3039
:102C900070471120704770477047A0F1BC00FFF7E4
:102CA000FBBFA0F1BC00FFF7F7BF00F0E7B8A0F151
:102CB000BC00FFF7FABF00F0E4B8A0F1BC00FFF7DA
:102CC000FABF000038B504461D46049B00F0E8F842
:102CD000294604F1BC0000F0ADFC064B03F10802EC
:102CE000226003F128028433C4F8BC20C4F8C03049
:102CF000204638BD3CB7000870B5D0E90823D0E9BC
:102D00000245064612196B4100F068F8736B2BB14F
:102D100006F128001B68BDE87040184770BDD0B5AB
:102D2000044616461F4600F0EDFC204600F060F811
:102D3000C4E90867A06900F0BBFB321847EB010348
:102D4000204600F04BF8BDE8D04000F007BD7FB54D
:102D5000044600F0D7FC204600F04AF8636B13B13C
:102D600094F83830E3B904F128066D4610220021AA
:102D7000684601F0DBFDAE420BD03046FDF7FEFAAF
:102D80003EB1039B1BB15B68694630469847039B85
:102D900063632846FDF7F2FA00F0E0FC04B070BD72
:102DA00000F092FADFE703689B681847094B10B5FB
:102DB000002203600023C0E9022300230361436172
:102DC000044600F099FA0449A06100F0FFFA204699
:102DD00010BD00BFE4B70008A72D000807B500909C
:102DE00000F10801806900F01EFB03B05DF804FBF0
:102DF00000F10801806900F040BB000010B5034BF2
:102E000003600446FFF7F4FF204610BDE4B7000856
:102E10007047704710B480B1146853680CB9DA0772
:102E20000BD513F0010F4FEA63031CBFC2581459AE
:102E3000184423465DF8044B18475DF8044B70476F
:102E4000090170B501F198050544EB6883B1441898
:102E5000D4F8A4302BB940F20E220649064800F0FF
:102E600023FCD4F8A43028461B68BDE870401847FE
:102E700070BD00BFE3B6000827B700084C30FEF76E
:102E8000B3BE10B54C300C46FEF7C0FE204610BD58
:102E9000C36810B504460BB19B689847204610BD27
:102EA0002DE9F04F87B00025924600950246019526
:102EB000044689469B469DE80300324B42F8083B96
:102EC000314B82E80300236148F2070363612F4B13
:102ED000E561A46122626362BFF36F8FBFF34F8F1E
:102EE000102284F8285084F8295004F12C0001F0B5
:102EF0001DFD04F14C062946102204F13C0001F0AE
:102F000015FD04F1980829464C22304601F00EFDCB
:102F100004F1A80729461022404601F007FD294682
:102F20001022384601F002FD10222946C4F8B8B03C
:102F300002A801F0FBFC02A94046FFF71AFE02A816
:102F4000FDF71CFA1022294602A801F0EFFC02A9A5
:102F50003846FFF70EFE02A8FDF710FA5246494622
:102F60003046FEF73FFDD4F8B8103046FEF7E4FDDA
:102F7000304622460649FEF7E3FD204607B0BDE88D
:102F8000F08F00BFF8B7000801A090E8152E0008E8
:102F9000412E00082DE9FF410646884656F84C3B75
:102FA00017461B6805463C01984700F0ABFBD8F874
:102FB0000C3098342C44ABB1E3680BB900F06AF9DB
:102FC00041462046FFF7D5FD012239463046FEF73F
:102FD000C3FD00F0C3FB2B6828465B68984704B02C
:102FE000BDE8F081E3680BB100F06EF9102200211A
:102FF000684601F09BFC69462046FFF7BAFD68462B
:10300000FDF7BCF90022E0E77FB51A4B03600446E8
:1030100010220021684601F089FC00226946204602
:10302000FFF7B8FF6846FDF7A9F9102200216846AE
:1030300001F07CFC012269462046FFF7ABFF6846A1
:10304000FDF79CF914F1980608D004F1B805B542D3
:1030500004D0103D2846FDF791F9F8E704F13C0053
:10306000FFF716FF04F12C00FFF712FF204604B013
:1030700070BD00BFF8B7000810B50446FFF7C4FFE5
:103080002046FEF72DF8204610BD10B5044600F08E
:1030900039FB23681BB1237F0BB100F015F9002326
:1030A000236000F05BFB204610BD38B5044600F0FD
:1030B00029FB236863B1A06900F0FAF9D4E902455D
:1030C000041B61EB050500F049FB2046294638BD8D
:1030D00000240025F7E770B5064600F013FB3046E4
:1030E000D6E90445FFF7E1FF24184D4100F036FB17
:1030F0002046294670BD08B5FFF7EDFF08BD10B5A5
:10310000044600F0FFFAA06900F0D2F90022002383
:10311000C4E90201C4E90423BDE8104000F01EBB6D
:10312000002310B5002203600023C0E90223C0E998
:103130000423044600F0E0F80123A0612377204631
:10314000FFF7DDFF204610BD70B50E46044615465C
:10315000FDF754FB013609D020460021FDF772FB34
:1031600029462046BDE87040FDF768BB70BD38B504
:1031700004460D4603685AB1826813602046012157
:10318000FDF760FB29462046BDE83840FDF756BBF9
:10319000C2681B04F1E70022FFF7D6BF70B50E46E8
:1031A00004461546FDF72AFB013606D02A4620467E
:1031B0000021BDE87040FFF7DABF70BD0022FFF7C5
:1031C000EDBF000010B5044601300DD110BD9C428A
:1031D00009D120468968FEF787F820460021BDE81E
:1031E0001040FEF719B90C31B1F900305A1CEED17C
:1031F0000248BDE8104000F069BA00BF57B80008A7
:10320000884208B508D0431C06D0013106D00448D6
:1032100000F05CFA4FF0FF31084608BD0146FBE7BD
:1032200026B80008B1F900305A1C01D11846704781
:10323000834201D1486870470C31F3E7421C10B556
:10324000044607D0FFF7EEFF431C044602D10248B4
:1032500000F03CFA204610BD37B80008B1F9003044
:103260005A1C01D118467047834201D188687047C3
:103270000C31F3E7421C10B5044607D0FFF7EEFF10
:10328000431C044602D1024800F020FA204610BD3B
:1032900008B8000808B500F035FA094B1A884FF64F
:1032A000FF739A4204D100F059FA064800F00EFA72
:1032B0000121034800F070FABDE8084000F04EBA62
:1032C0003812002068B8000808B500F01BFA084B57
:1032D0001B8823B900F042FA064800F0F7F90121F3
:1032E000034800F066FABDE8084000F037BA00BFB6
:1032F0003812002095B8000800487047BCB8000894
:10330000014800F06EB800BFBCB800080368D0B533
:1033100044685B68D4E9026798470022B04242EAF9
:1033200000023B4602D2003247F10103C4E9022306
:10333000D0BD2DE9F0410646FFF7E8FF7268376817
:103340005368D2E902012BB3D3E90023994208BFA5
:10335000904203D37B69BDE8F0411847141A63EB30
:103360000105002D08BFB4F1E04F13D2121A8418E2
:103370003B69204641F1000598473046FFF7C6FFFC
:103380007368D3E90223AB4208BFA24205D3336876
:103390005B69E0E74FF0E042E9E7BDE8F0810368F0
:1033A00010B504461B689847636800221A605A608B
:1033B000002000210122C3E902011A742046FFF710
:1033C000A5FF2046BDE81040FFF7B3BF38B54368FE
:1033D0001B7C04460D460BB9FFF7E1FF63681D60D7
:1033E00038BD036870B5DB680446984763685B685E
:1033F000A3B12046FFF78AFF65686E68D5E9020130
:10340000D6E90023994208BF904207D3F3686B6066
:103410002B68002BEAD0B0689847E7E72046BDE864
:103420007040FFF786BF2DE9F84305460C46164667
:103430001F46DDF8208000F065F92846FFF766FF9B
:103440006968C4F80880C4E900674B6800224BB97A
:10345000E36082B94C602846FFF76BFFBDE8F84394
:1034600000F07CB9D3E900894F4508BF4645EFD34A
:103470001A46DB68EBE7D460EDE738B505460C4645
:1034800000F040F96A685368A34209D1DB685360D1
:103490002846FFF74EFFBDE8384000F05FB91346FD
:1034A000002BF8D0DA689442F9D1E268DA60F2E7EA
:1034B00043681B7C10B504460BB9FFF770FF20462C
:1034C000FFF724FF6368D3E9020110BD08B5FFF7D9
:1034D000EFFF08BD10B50023036043600A782F2A70
:1034E00004460DD14A785AB1481C20601946236819
:1034F0001A782F2A06D10133236000F0DBF96060CF
:10350000204610BD002AF8D0013301312360EEE7D8
:1035100000687047406808B520B100F07AF9431E92
:103520005842584108BD10B50446FFF7F3FF10B1EB
:10353000606800B1043810BD406808B520B100F0E3
:1035400068F9B0FA80F0400908BD10B50446FFF7ED
:10355000F3FF10B1606800B1043810BD406800305E
:1035600018BF012070470020704700207047036893
:1035700001221B6900211847036800221B691146BC
:10358000184770477047F8B50368DB6C0E46044671
:103590008F1898473546BD4207D0236815F8011BA0
:1035A0005B6C204698470130F5D1236820461B6D9F
:1035B0009847A81BF8BDF8B50368DB6C0E460446B7
:1035C0008F1898473546BD4208D0236820469B6C2B
:1035D0009847431C02D005F8010BF4E72368204606
:1035E0001B6D9847A81BF8BD00207047704700204E
:1035F000704700207047000010B5054B03604C3346
:10360000044640F8043F00F025F9204610BD00BFF5
:10361000E4B80008A0F10400EEE700BF10B50446CE
:10362000FFF7EAFF2046FDF75BFD204610BDA0F145
:103630000400F3E70F4B10B50022044640F8043BAA
:1036400000F0EAF80C4B23605C3363600023636195
:103650000A49204600F067F9606118B1FDF711FDD5
:10366000204610BD00F062F90168054800F02EF810
:10367000F6E700BF8CBA000864B9000838B9000842
:103680003BB9000810B5074B03F108026433044648
:1036900002604360406900F0B1F92046FFF7ACFFDB
:1036A000204610BD5CB9000870B504460D461646AC
:1036B00000F028F833462A4621460348FDF78EFBE2
:1036C000BDE87040FDF734BBC8B900080FB413B5AE
:1036D000084B1A784AB9012405A904981C70019175
:1036E000FDF752FB2046FDF7C7FC02B0BDE81040D5
:1036F00004B0704758120020EFF31080C04300F070
:103700000100704738B5FFF7F7FF054672B60E4C5B
:10371000236823B980F001030C4ADBB213702368DD
:10372000013304D143220A490A48FFF7BDFF236849
:103730002BB125B1472206490748FFF7B5FF23689B
:103740000133236038BD00BF5C12002059120020F5
:10375000F9B9000837BA00085DBA000810B50A4C7C
:10376000236883B1FFF7C8FF20B1582207490848F2
:10377000FFF79AFF2368013B236023681BB9054BC1
:103780001B7803B962B610BD5C120020F9B90008BD
:103790005DBA00085912002038B505460C46FFF7FF
:1037A000B1FF29880C44A4B22C80FFF7D7FF204634
:1037B00038BD70B505460E46FFF7A4FF2C88A41B44
:1037C000A4B22C80FFF7CAFF204670BD70B5044636
:1037D000FFF792FD0646FFF779FE05463046FFF7F4
:1037E00075FE401BA042F9D370BD000007EE100A21
:1037F000DFED047A67EE277AFDEEE77A17EE900A9E
:10380000FFF7E4BF002474494FF47A735843FFF77D
:10381000DDBF007B7047000038B504460A4B0360EB
:10382000002343600D46A16002730848FDF75AFC6F
:1038300045B1074B1A6862601C600448FDF752FCF2
:10384000204638BD6560F8E77CBA000864120020A5
:103850006012002010B50F4B036004460E48FDF7C0
:1038600041FCA3682BB10D4A13689C420CD16368DC
:1038700013600948FDF736FC237B13B9201FFDF7C1
:1038800047FC204610BD13465A689442FBD162683B
:103890005A60EEE77CBA0008641200206012002033
:1038A00010B50446FFF7D6FF2046FDF719FC204669
:1038B00010BD000070B506460C480D46FDF712FC21
:1038C0000B4B1C685CB1A06870B12A46314601F010
:1038D00045FC48B9A06801F0D3FB854204D10348F8
:1038E000FDF700FC204670BD6468EBE76412002021
:1038F00060120020036870B51B6901220021044694
:103900009847051E0DDB236802221B690021204613
:1039100098472368064629461B6900222046984797
:103920003546284670BDFDF7AFBB0000014B186857
:10393000704700BFA801002070B559B105460C467C
:1039400010B1836B002B3CD0636ED80705D5B4F95A
:103950000C302BB90026304670BDA38999053CD5A3
:103960002146284600F052F8E36A064633B1E16981
:10397000284698470028B8BF4FF0FF36A3891A069B
:1039800022D4216B41B104F14003994202D0284670
:1039900006F0B2FD00232363616C21B1284606F0D6
:1039A000ABFD0023636400F0D3F9636E0022DB07F4
:1039B000A2810ED5A06D00F0DBFD00F0CFF93046FE
:1039C00070BD00F045F9BFE72169284606F094FD77
:1039D000D7E7A06D00F0D0FDECE7A06D00F0CAFDC8
:1039E000B4F90C30002BBBD1666E16F00106B1D1D4
:1039F000A06D00F0C1FD304670BD00BF024B014616
:103A00001868FFF799BF00BFA8010020B1F90C307A
:103A10009AB22DE9F0410D46110780463AD46A6802
:103A200043F40063002AAB816FDDAC6A002C49D0FF
:103A300000229BB2D8F80060C8F8002013F480522E
:103A400067D02A6D5F0705D569682B6B521A0BB1D9
:103A5000EB6BD21A0023E9694046A047441C3CD0D6
:103A6000B5F90C302A692A6023F400630022AB8187
:103A7000DB046A6047D4296BC8F8006011B305F114
:103A80004003994202D0404606F036FD00202863EC
:103A9000BDE8F0812E69AEB12C682E6091070CBF95
:103AA0006B690023A41BAB600AE0234632466F6AB1
:103AB000E9694046B8470028A4EB0004064404DD49
:103AC000002CF2DC0020BDE8F081AB8943F040031C
:103AD000AB814FF0FF30BDE8F081D8F800401D2CDD
:103AE000F3D8194BE340DB4313F00103EDD1B5F9F3
:103AF0000C206B6022F400632969AB81DA04296031
:103B0000B9D5002CB7D12865B5E7EA6B002A8CDC63
:103B1000D8E70123E9694046A047431C024602D08A
:103B2000AB89AC6A8EE7D8F80030002BF8D01D2B9B
:103B300001D0162B02D1C8F80060C3E7AB8943F06F
:103B40004003AB81BDE8F0810100402038B50D464F
:103B5000044608B1836BBBB1B5F90C0088B16B6E3C
:103B6000DB0701D4810517D520462946FFF74EFF14
:103B70006B6EDA07044602D4AB899B0507D5204655
:103B800038BD0446204638BD00F062F8E4E7A86D71
:103B900000F0F2FC204638BDA86D00F0EBFCE3E736
:103BA00020B1054B01461868FFF7D0BF034B04490D
:103BB000186800F089BC00BFA8010020D0BA000836
:103BC0004D3B0008014900F07FBC00BF39390008B7
:103BD00010B5002304468181C28103604360836085
:103BE0004366036143618361194608225C3000F03B
:103BF0009DFE07480749084A084B2062E46161625C
:103C0000A262E36204F15800BDE8104000F0AEBCCF
:103C1000E54C0008094D0008454D0008654D0008B9
:103C200070B54A1E682505FB02F50E4605F17401C4
:103C300006F05EFC044640B100210C30666005F1E0
:103C400068022160A06000F071FE204670BD00BFD8
:103C500010B50446124800F08DFCA26BD2B904F5F1
:103C60003B731048C4F8E8320321C4F8E022E06353
:103C7000C4F8E41260680421FFF7AAFF01220921B9
:103C8000A068FFF7A5FF02221221E068FFF7A0FF5E
:103C90000123A3630248BDE8104000F06DBC00BFE3
:103CA000B8150020C53B000870B50646264800F050
:103CB00061FC264B1D68AB6B002B33D005F53875C6
:103CC0006B68AC68013B05D528E0013B5A1C04F148
:103CD000680423D0B4F90C20002AF6D100254FF651
:103CE000FF720123E281A38104F15800656600F0B0
:103CF0003DFC154800F040FC2560A560656025612D
:103D00006561A5612946082204F15C0000F00EFE01
:103D1000256365636564A564204670BD2C682CB17D
:103D20002546CDE72846FFF793FFC7E70421304635
:103D3000FFF776FF044628600028F1D1024800F022
:103D40001BFC0C233360E7E7CC150020D0BA000839
:103D5000014800F00FBC00BFCC150020014800F066
:103D60000BBC00BFCC150020F0B5134683B00F4646
:103D700001AA1946064603F02DFE00282FD005465D
:103D80003046FFF791FF0446002828D039464FF40B
:103D9000DB73019A304600F017FE071E30DB636EBE
:103DA000DB0715D51C491D481D4A1E4B6162E905FC
:103DB000E781A581E4612062A262E36213D4636EAD
:103DC000DA0702D4A3899B0514D5204603B0F0BDC1
:103DD000A3899805E6D4A06D00F0CCFBE2E70024AF
:103DE000204603B0F0BD304602230022214600F0F9
:103DF00023F8E4E7A06D00F0BFFB204603B0F0BD60
:103E00000025FFF7A5FFA581A06D00F0B1FB2C46B2
:103E1000FFF7A4FFD9E700BF094D0008E54C0008F3
:103E2000454D0008654D0008024B0A4601461868DA
:103E3000FFF79ABFA801002000F000B82DE9F04F6D
:103E40000C4691B091461F46064610B1836B002B7D
:103E500067D0636E13F0010FA38902D19D0540F175
:103E6000B28003F48473B3F5847F00F0B680D4F895
:103E70002880B8F1000F00F0BA80012F38D0022F4F
:103E80000ED06FB1636E1622D907326002D4A389B7
:103E90009A0529D54FF0FF35284611B0BDE8F08FBF
:103EA0004FF0000A23695546002B00F02D81B4F92C
:103EB0000C3040F61A019AB20A4208D152053AD49F
:103EC000A74A904500F0258143F40063A381214671
:103ED0003046FFF73BFE002800F09B80636ED90759
:103EE000D8D4A3899A05D5D4A06D00F045FBD1E7BD
:103EF00021463046FFF72AFEA38913F4805200F0D2
:103F0000E180256D5F0779D4180740F1D3802268DE
:103F100023690AB1D21A1544A9444FF0010A0027B7
:103F2000C2E7FFF795FE94E7A3894FF4806243F45C
:103F30008063A381E264002F40F0CD80CB46BAF1CC
:103F4000000F40F0B980A389DB0440F1F680206DBA
:103F50006268216B851A9646002900F0F980E36BB0
:103F6000ED1A15442069A26B121AAD1A1344AB4521
:103F70006CDBEA185A4569D9ABEB050528445B1B95
:103F800084E8090041B104F14003994202D030466F
:103F900006F0B2FA00232363A38923F02003A38150
:103FA0000822002104F15C0000F0C0FC656E15F0F1
:103FB000010503D1A3899B0540F1A2800025284675
:103FC00011B0BDE8F08FA06D00F0D4FAA38903F41E
:103FD0008473B3F5847F7FF44AAF21463046FFF700
:103FE000B5FDD4F82880B8F1000F7FF446AF636EBA
:103FF0001D22D80732607FF54AAF4BE7D4F804E0C2
:10400000236BA5EB0E05002B54D0E26B2369AD1A90
:1040100082E73B464A46E1693046C04701303FF4FB
:104020005DAF216B41B104F14003994202D03046AB
:1040300006F062FA00232363A3892269226023F435
:1040400002630021A38161600822ABE7E56CE169AE
:104050006D4205EA0B052A4600233046C047013071
:104060003FF435AF2369216B23600023636041B1C6
:1040700004F14003994202D0304606F03DFA002395
:104080002363A389BBEB050B23F02003A38187D017
:104090002146304600F0CCFC00287FF418AF63685E
:1040A0009B453FF614AF2268A3EB0B035A4484E808
:1040B0000C0075E723692FE7216B002946D0626861
:1040C000E36B4EE7E1693B463046C047411C05467D
:1040D0000ED0A38916E701AAB4F90E10304600F0FD
:1040E00041F800287FF4F3AE059B09EB030B26E7AC
:1040F000636EDA073FF5CEAEA3899B053FF5CAAEE6
:10410000A06D00F039FAC7E62146304600F064FAA7
:10411000CDE6B4F90E100029FFF6D6AE01AA30465E
:1041200000F020F830B9029B03F47043B3F5004F60
:104130003FF4FAAEB4F90C30C6E652460123E16909
:104140003046C047451C7FF403AFC0E6D4F804E016
:10415000236820691B1AED1A0021734407E700BF8A
:10416000454D000838B50B46074C05461146184624
:1041700000232360FCF71EFF431C00D038BD2368DA
:10418000002BFBD02B6038BDD01500209368002B8E
:1041900073D02DE9F04F8B8983B00C46190700903E
:1041A000164626D5226922B313F0020035682CD0BA
:1041B0004FF00009B04FC846B246B84543464A469C
:1041C00028BF3B460098B8F1000F50D0E169666AFD
:1041D000B047002858DDDAF808301B1A8144A8EBF4
:1041E0000008CAF80830002BE7D1002003B0BDE872
:1041F000F08F2146009802F0C7FB002840F0338181
:10420000A389356813F00200D2D113F0010945D11A
:104210004F46019637B39A05D4F8088040F1838061
:104220004745C346C0F0AB8013F4906F40F0AC80BC
:104230002068BA465A46494600F014FBA268236833
:10424000A2EB08025B44A2602360019A9368A3EB8F
:104250000A03D144A7EB0A079360002BC5D0A389BA
:10426000002FD8D1D5F800906F680835D2E7D5F87F
:104270000090D5F8048008359FE70020704721465C
:104280000098FFF763FC70B3B4F90C3043F04003BF
:104290004FF0FF30A38103B0BDE8F08F8146334675
:1042A0004E46A8469A464D464EB380B320682369D1
:1042B0006269B145CB4628BFB34698425F4604D9F0
:1042C000A36813449B4500F3A68093454BDB13463C
:1042D000676AE16900982A46B847071ED4DDB9EB42
:1042E0000709CCD00120DAF80830DB1B3D44F61B6F
:1042F000CAF80830002B3FF478AF002ED5D108F172
:10430000080313E9600098460833002EF9D03246BE
:104310000A21284600F0BCF9002800F0A1800130F5
:10432000A0EB0509C2E720682369984202D86369B7
:104330009F425DD2B84528BFB8464246494600F084
:1043400091FAA3682268A3EB08034244A3602260A9
:104350000BB1C24679E721460098FFF7F7FB00282A
:1043600092D1C24671E75A46294600F07BFAA2680C
:104370002368A2EB0B025B44A2602360AFE72068D6
:10438000B846BA46BB4655E762692068216902EB28
:104390004208A0EB010A08EBD8780AF101004FEAC5
:1043A000680838444045424684BF804642465B0523
:1043B00044D51146009806F09BF88346002855D056
:1043C0005246216900F0B4F9A38923F4906343F0C5
:1043D0008003A3810BEB0A00A8EB0A03C4F810B01A
:1043E000C4F814802060A360B846BA46BB4621E7F3
:1043F0006FF00041B94228BF39464A4691FBF3F1BC
:104400000098666A03FB01F3E169B047B0F1000A66
:104410003FF71BAF38E71A462946019300F022FA0E
:104420002268019B00981A4422602146FFF78EFB08
:10443000019B00287FF428AF1F4650E7009806F044
:1044400059F883460028C5D1009D2169284606F009
:1044500053F8B4F90C300C2223F080032A6015E7DE
:1044600006F1010922E74FF0FF30BFE6009A0C2366
:104470001360B4F90C3009E700FCFF7F2DE9F0412F
:1044800010F538771BD0884600267D68BC68013D52
:104490000FD4A389012B05F1FF3506D9B4F90E30ED
:1044A0000133204601D0C04706436B1C04F1680469
:1044B000EFD13F68002FE8D13046BDE8F0813E469D
:1044C0003046BDE8F08100BF2DE9F84310F538779C
:1044D0001FD0884606464FF000097D68BC68013D44
:1044E00011D4A389012B05F1FF3508D9B4F90E3099
:1044F00001332146304602D0C04749EA00096B1C0F
:1045000004F16804EDD13F68002FE6D14846BDE8CC
:10451000F883B9464846BDE8F88300BF70B50F4E32
:104520000F4D761BB61018BF002405D0013455F886
:10453000043B9847A642F9D10A4E0B4D761B06F074
:10454000ADFDB61018BF002406D0013455F8043B69
:104550009847A642F9D170BD70BD00BF540B002032
:10456000540B00205C0B0020540B0020704700BF50
:10457000704700BF704700BF704700BF70B50C4662
:10458000B1F90E10002990B015461E4614DB01AAA1
:10459000FFF7E8FD00280FDB029A02F47042A2F553
:1045A0000052B2FA82F252094FF480634FF4006075
:1045B00032602B6010B070BDA289002312F0800021
:1045C000336004D0402218462A6010B070BD4FF40A
:1045D00080632B6010B070BD8A8992070B4606D5A8
:1045E00001F1430201211A601A6159617047F0B567
:1045F00083B001AB6A460C460646FFF7BFFF009941
:104600000546304605F074FFB4F90C30D8B1019A74
:10461000154F0099F76343F08003A3812060206168
:1046200061611AB92B43A38103B0F0BD3046B4F9E0
:104630000E1003F009FAA0B1A38923F0030343F09D
:1046400001031BB2EEE79A05EED423F0030304F155
:10465000430243F002030121A381226022616161D0
:10466000E2E7B4F90C30DDE7C53B0008024B014638
:10467000186805F03DBF00BFA8010020024B0146AD
:10468000186805F039BF00BFA80100200000000035
:1046900001F0FF01102A2BDB10F0070F08D010F8F3
:1046A000013B013A8B422DD010F0070F42B3F6D1F7
:1046B000F0B441EA012141EA014122F007047FF010
:1046C00000070023F0E80256083C85EA010586EA67
:1046D000010685FA47F5A3FA87F586FA47F6A5FAA3
:1046E00087F68EB9EED1F0BC01F0FF0102F00702AF
:1046F00032B110F8013B013A83EA010313B1F8D15A
:104700000020704701387047002D06BF354603383A
:10471000073815F0010F07D1013015F4807F02BF73
:10472000013015F4C03F0130F0BC0138704700BFC4
:10473000844641EA000313F003036DD1403A41D3AC
:1047400051F8043B40F8043B51F8043B40F8043B6B
:1047500051F8043B40F8043B51F8043B40F8043B5B
:1047600051F8043B40F8043B51F8043B40F8043B4B
:1047700051F8043B40F8043B51F8043B40F8043B3B
:1047800051F8043B40F8043B51F8043B40F8043B2B
:1047900051F8043B40F8043B51F8043B40F8043B1B
:1047A00051F8043B40F8043B51F8043B40F8043B0B
:1047B00051F8043B40F8043B51F8043B40F8043BFB
:1047C000403ABDD2303211D351F8043B40F8043B9B
:1047D00051F8043B40F8043B51F8043B40F8043BDB
:1047E00051F8043B40F8043B103AEDD20C3205D3AB
:1047F00051F8043B40F8043B043AF9D2043208D0A3
:10480000D2071CBF11F8013B00F8013B01D30B8814
:1048100003806046704700BF082A13D38B078DD0F2
:1048200010F003038AD0C3F10403D21ADB071CBFC4
:1048300011F8013B00F8013B80D331F8023B20F82E
:10484000023B7BE7043AD9D3013A11F8013B00F867
:10485000013BF9D20B7803704B7843708B788370EF
:10486000604670478842F0B50DD98B1898420AD23D
:104870008418002A51D0224613F8014D02F8014D48
:104880009942F9D1F0BD0F2A48D941EA00039B07AC
:1048900046D100F1100401F11003154653F8106CD5
:1048A00044F8106C53F80C6C44F80C6C53F8086C1A
:1048B00044F8086C103D53F8046C44F8046C0F2D58
:1048C00003F1100304F11004E8D8A2F1100323F05F
:1048D0000F0302F00F0E1033BEF1030F194403440F
:1048E00021D91E1F0D467446043C55F8047B46F83A
:1048F000047F032CF8D8AEF1040424F0030404343C
:104900002144234402F0030262B1013B0A4411F83E
:10491000014B03F8014F8A42F9D1F0BD0346F3E79A
:104920000346F2E7F0BD7246EEE700BF70B48607BB
:1049300046D0541E002A41D0CAB2034602E014F108
:10494000FF343BD303F8012B9D07F8D1032C2ED95C
:10495000CDB245EA05250F2C45EA054519D903F1E5
:1049600010022646103E0F2E42F8105C42F80C5CF6
:1049700042F8085C42F8045C02F11002F2D8A4F19B
:10498000100222F00F0204F00F041032032C134423
:104990000DD91E462246043A032A46F8045BFAD88B
:1049A000221F22F003020432134404F003042CB14A
:1049B000C9B21C4403F8011B9C42FBD170BC704778
:1049C00014460346C2E700BF70B50D46084C1146B9
:1049D00006461A46284600232360FCF7B3FB431C17
:1049E00000D070BD2368002BFBD0336070BD00BFCA
:1049F000D01500200FB400B5074983B004AB086898
:104A000053F8042B8168019300F0FAFB03B05DF8C2
:104A100004EB04B0704700BFA8010020838903F0B5
:104A20000903092B01D000207047FFF7B9B800BF78
:104A3000F8B50C46054610B1836B002B45D0B4F990
:104A40000C309AB2970407D4626E43F4005322F4F8
:104A500000526266A3819AB200219606616031D449
:104A6000500722D5216B61B104F14003994202D075
:104A7000284605F041FDE36B636000202063002BB6
:104A80003FD12369002B4CD0B4F90C70BEB2B307F0
:104A90001ED12269226028466369256AE169A84718
:104AA0000028606009DD0020F8BDD1063ED5120760
:104AB0002AD443F00403A381E3E7A38919D143F087
:104AC0002003A3814FF0FF30F8BDFFF7C1F8B6E730
:104AD0001A4B1B4918680123A38106F00906FFF74A
:104AE000CDFC092EA781D4D121462846FEF78EFFA2
:104AF000CFE7002243F04003A38162604FF0FF3014
:104B0000F8BDA36B2360F8BD21462846FFF71EF8C9
:104B10000028D7D1B4F90C30A060A06123F00803BD
:104B2000C7E721462846FFF757FDADE743F04003AE
:104B300009222A604FF0FF30A381F8BDD0BA0008E7
:104B40001D4A000800290CBF022200224FF4806396
:104B500000F000B82DE9F043614C256883B00446AD
:104B60000F4690461E4615B1AB6B002B64D0B8F1D2
:104B7000020F06D0B8F1010F00F29F80002EC0F2A4
:104B80009C80636ED80734D521462846FEF7DEFFA9
:104B9000216B41B104F14003994202D0284605F04F
:104BA000ABFC00232363B4F90C300022A2616260E5
:104BB0001A063AD423F44A6323F00303B8F1020F30
:104BC000A3811DD001AB6A4621462846FFF7D6FCDB
:104BD000A3891843A081002E32D1009E3046FFF7F2
:104BE00045FD074600286BD0A38943F08003A381CD
:104BF00028E0A3899905C7D4A06DFFF7BBFCC3E7E4
:104C00000025616E002604F1430243F002030120F7
:104C1000A660CE07A38122602261606101D498055D
:104C20003ED5284603B0BDE8F0832169284605F04B
:104C300063FCB4F90C30BDE72846FFF709F896E7A6
:104C4000002FCBD0AB6B002B33D0009BB4F90C20E2
:104C500027609E421CBF42F40062A281B8F1010F9E
:104C600004BF42F00102A28192B212F00803276150
:104C700066610ED0D1071AD5656E7642002315F015
:104C80000105A661A36009D00025284603B0BDE850
:104C9000F083A360656E15F00105F5D19305C0D4CE
:104CA000A06DFFF769FC284603B0BDE8F083A6605D
:104CB000F0E72846FEF7CCFFC7E74FF0FF35B0E737
:104CC000DDF80090B14504D04846FFF7CFFC074619
:104CD00020B9B4F90C304FF0FF3592E74E4683E728
:104CE000A801002010B50C46B1F90E1003F000FA2F
:104CF000002803DB236D0344236510BDA38923F43F
:104D00008053A38110BD00BF2DE9F0411646B1F9D3
:104D10000C201F46D3050C46054607D5002202236A
:104D2000B1F90E1002F0BEFEB4F90C20B4F90E1069
:104D300022F48052A2813B4632462846BDE8F0412B
:104D400001F00CBE10B50C46B1F90E1002F0AAFE2F
:104D5000A389421C0EBF23F4805343F48053206583
:104D6000A38110BDB1F90E1001F072BE0000000069
:104D70000000000000000000000000000000000033
:104D8000A2EB0300704700BF02780B78012A28BF0E
:104D90009A42F5D16DE9044540EA0104CDE9026784
:104DA0006FF0000C4FEA447212B380EA010414F071
:104DB000070F6AD100F0070420F0070004F0030594
:104DC00021F007014FEAC505F0E8042314F0040FB1
:104DD000F1E804670CFA05F462EA040266EA0406E4
:104DE0000AD063EA0403624667EA0407664603E002
:104DF000F0E80423F1E8046782FA4CF582EA06043D
:104E0000A4FA8CF46CBB83FA4CF583EA0705A5FA87
:104E10008CF595B950E9022351E9026782FA4CF505
:104E200082EA0604A4FA8CF483FA4CF583EA0705B7
:104E3000A5FA8CF52543DBD09CB92DBAB5FA85F4DB
:104E400024F0070427FA04F1DDE9026723FA04F3EA
:104E500003F0FF0001F0FF01FDE80445A0EB0100B5
:104E6000704724BAB4FA84F424F0070426FA04F153
:104E7000DDE9026722FA04F202F0FF0001F0FF010F
:104E8000FDE80445A0EB0100704714F0030F3CD18E
:104E900010F0030428D150F8082B51F8083B82FA8F
:104EA0004CF582EA0305A5FA8CF55DB950F8042C9F
:104EB00051F8043C82FA4CF582EA0305A5FA8CF518
:104EC000002DE8D02DBAB5FA85F424F0070423FAB2
:104ED00004F122FA04F202F0FF0001F0FF01FDE804
:104EE0000445A0EB010070474FEAC40420F0030022
:104EF00050F8082B21F0030151F8083B0CFA04F498
:104F000062EA040263EA0403C9E710F003041AD05A
:104F1000A1EB040120F00300E40750F8042B06D0B5
:104F20000FD28B785FFAA2F4E41A06D12BB1CB78BA
:104F30005FFAB2F4E41A00D11BB920465DF8104BB9
:104F4000704701F1040150F8042BCC0721F0030154
:104F500051F8043B48D824D222F07F4482FA4CF521
:104F600094EA1325A5FA8CF50AD165B951F8043BEA
:104F700084EA0204B4EB036F0ED150F8042BEBE784
:104F80004FEA132355E035F07F454DD10878FDE811
:104F90000445C0F1000070474FEA126203F0FF03BE
:104FA00047E002EA1C4482FA4CF594EA1345A5FA5C
:104FB0008CF50AD165B951F8043B84EA0204B4EBDC
:104FC000034F0CD150F8042BEBE74FEA134330E0CA
:104FD00015EA1C4528D10B884FEA124229E04FEA16
:104FE000124203EA1C4324E002F0FF0482FA4CF56B
:104FF00094EA1365A5FA8CF50AD165B951F8043B1A
:1050000084EA0204B4EB032F09D150F8042BEBE738
:105010004FEA13630DE015F0FF0F05D10B684FEA5F
:10502000122223F07F4304E04FF00000FDE8044526
:10503000704712BA1BBA82FA4CF482EA0304A4FA4B
:105040008CF5B5FA85F402FA04F203FA04F34FEA98
:105050001260FDE80445A0EB1360704700000000FB
:105060000000000000000000000000000000000040
:105070000000000000000000000000000000000030
:1050800090F800F06DE9024520F007016FF0000C88
:1050900010F0070491F820F040F049804FF0000430
:1050A0006FF00700D1E9002391F840F000F108000B
:1050B00082FA4CF2A4FA8CF283FA4CF3A2FA8CF343
:1050C0004BBBD1E9022382FA4CF200F10800A4FAAA
:1050D0008CF283FA4CF3A2FA8CF3E3B9D1E90423FE
:1050E00082FA4CF200F10800A4FA8CF283FA4CF335
:1050F000A2FA8CF37BB9D1E9062301F1200182FAEF
:105100004CF200F10800A4FA8CF283FA4CF3A2FAF4
:105110008CF3002BC6D0002A04BF04301A4612BA02
:10512000B2FA82F2FDE8024500EBD2007047D1E905
:10513000002304F00305C4F100004FEAC50514F094
:10514000040F91F840F00CFA05F562EA05021CBF65
:1051500063EA050362464FF00004A9E7002A41D044
:1051600040EA010313F00303F0B425D1032A23D945
:1051700004680D68AC421FD1043A38D0A4F101355F
:1051800025EA040414F0803F2ED1043004310FE0EE
:1051900050F8043B0E68A3F10134B34224EA03043F
:1051A00001F1040126D1043A21D014F0803F1BD133
:1051B000032A07460D46EBD805780C78AC4202F17D
:1051C000FF331AD183B114B90EE06BB17AB110F884
:1051D000012F11F8014FA24203F1FF33F5D0101B4C
:1051E000F0BC7047104670470020F0BC7047104676
:1051F000F0BC704729463846DEE72A46EFE700BF95
:105200002DE9F04FC3B01D468A46914604460890EA
:1052100002F03AFC036815931846FFF731FF0E952C
:1052200014901CB1A36B002B00F06282DAF864309A
:10523000BAF90C2013F0010F93B202D1990540F195
:1052400078829F040AD4DAF8641042F4005321F4FF
:105250000051AAF80C30CAF864109BB21E0740F146
:105260002682DAF81020002A00F0218203F01A02C8
:105270000A2A00F041829FED8E7B00238DED127B88
:10528000119327932693169317930B9332AB259381
:105290009846CDF828A099F800304C46EBB1252B64
:1052A00002D11AE0252B03D014F8013F002BF9D1CD
:1052B000A4EB09058DB1269B279AC8F8009001330D
:1052C0002A44072BC8F804502792269300F305823E
:1052D00008F108080B9B2B440B932378002B00F05C
:1052E000FE8300231A468DF8773019460C939B46AF
:1052F00066784FF0FF3304F10109099309F10109C0
:10530000A6F12003582B00F2CD83DFE813F0E5026D
:10531000CB03CB035403CB03CB03CB03CB03CB0394
:10532000CB0359030D03CB031E02ED02CB0308038D
:105330003F033F033F033F033F033F033F033F035D
:105340003F03CB03CB03CB03CB03CB03CB03CB0379
:10535000CB03CB03CB034E036703CB036703CB0322
:10536000CB03CB03CB03B003CB03CB036F00CB0347
:10537000CB03CB03CB03CB035900CB03CB032303DA
:10538000CB03CB03CB03CB03CB03CB03CB03CB03AD
:10539000CB03CB0329037802670367036703BC02CF
:1053A0007802CB03CB03C102CB03CE027100120300
:1053B0004B02CB035702CB035B00CB03CB0323028F
:1053C0004BF0100B1BF0200F40F061830E9A1BF086
:1053D000100F134640F0CA851BF0400F00F0C68541
:1053E00014880432002501230E9214E04BF0100BB8
:1053F0001BF0200340F040831BF0100240F0A58515
:105400001BF0400300F0A1850E9913460A460432B2
:105410000C880E9200254FF0000A8DF877A00999AC
:105420004A1C00F010822BF08002069254EA05021A
:1054300040F00F82002940F07C84002B40F03A8538
:105440001BF001030D9300F0768642AF302307F87E
:10545000413D099B0D9A9342B8BF13460793002321
:105460001093BAF1000F02D0079B01330793069BFC
:1054700013F002030F9302D0079B02330793069B9E
:1054800013F0840540F029830C9B079AA3EB020BD1
:10549000BBF1000F40F32183BBF1100F2799269A2F
:1054A0002CDD43461024A846DDF820A00A9D0AE022
:1054B0000000000000000000ABF1100BBBF1100F6A
:1054C00003F1080318DD0132B94826921031072A8A
:1054D000279183E81100EFDD25AA2946504604F004
:1054E000ABF8002840F07483ABF1100BBBF1100F48
:1054F0002799269A32ABE6DC454698460132AC4BFA
:1055000026920BEB0104072A279488E8080800F389
:10551000D6849DF877A008F10808BAF1000F0ED0E4
:10552000269B013301340DF177010122072B2794CB
:10553000269388E8060000F3138408F108080F9BFF
:105540006BB1269B013302341EA90222072B27943C
:10555000269388E8060000F30F8408F10808802DE0
:1055600000F03883099B0D9AA3EB020ABAF1000FF1
:105570003BDDBAF1100F269B8E4D2BDD42462146B6
:10558000B0464FF0100B2E46089C0A9D06E0AAF18B
:10559000100ABAF1100F02F1080217DD01331031C1
:1055A000072B2791269382E84008F0DD25AA29469B
:1055B000204604F041F8002840F00A83AAF1100ABE
:1055C000BAF1100F2799269B32AAE7DC35460C4624
:1055D0004646904601335444072B2794269388E887
:1055E000200400F3B28308F10808069BDB0500F1F4
:1055F0008F82269B0D99C8F8007001330C44072B4D
:105600002794C8F80410269300F37E8308F1080855
:10561000069B59073BD50C9B079A9D1A002D36DD3A
:10562000102D269B21DD1026089FDDF828A004E020
:10563000103D102D08F1080817DD01335C4A269350
:105640001034072B279488E84400F1DD25AA514641
:10565000384603F0F1FF002840F04982103D102D3C
:10566000279C269B0DF1C808E7DC0133504A26939E
:105670002C44072B279488E8240008DD25AA0A99E2
:10568000089803F0D9FF002840F05083279C0B9B1B
:105690000C9A07998A42ACBF9B185B180B93002C9D
:1056A00040F03C83002326930DF1C808F3E55146F2
:1056B000089801F069F9002838D0DAF86430DD077D
:1056C00004D4BAF80C309C0540F1DA854FF0FF3372
:1056D0000B930B9843B0BDE8F08F25AA0A99089860
:1056E00003F0AAFF002840F021830DF1C808F1E57E
:1056F0000898FEF7ADFA99E5BAF90E20002AFFF6F0
:10570000BAADDAF86420D00705D4990503D4DAF8E5
:105710005800FEF731FF2B464A465146089801F0E3
:1057200039F80B900B9843B0BDE8F08FBAF80C3005
:105730009CE5DAF85800FEF71DFFBAF90C2093B289
:105740007FE50C980E9340420C904BF0040B99F8B7
:105750000060D3E5002A40F0F787174B16931BF043
:10576000200F40F0CD840E9A1BF0100F134640F02E
:10577000E7831BF0400F00F0E383043314880E939B
:1057800000251BF0010F00F02B8354EA050300F005
:10579000278330238DF878308DF879604BF0020B39
:1057A000022338E64BF0200B99F80060A6E500BF15
:1057B00018BB000828BB0008F8BA00080E9A176842
:1057C00000248DF87740151D002F00F05D86099AA2
:1057D000531C00F0DB8521463846FEF759FF0028B0
:1057E00000F0DA86C31B0D9309940E95CDF818B01E
:1057F00023EAE373079310949DF877A031E6002A1B
:1058000040F0AD871BF0200F40F088841BF0100F94
:1058100040F0A3831BF0400F00F09F830E99B1F975
:1058200000400431E51722462B460E91002A73F101
:105830000003C0F2908409999DF877A04A1C4FF0AC
:1058400001037FF4F0AD54EA050200F07482CDF854
:1058500018B0012B00F01083022B40F09D821698A7
:1058600032AF230904F00F0143EA05732A091C46ED
:105870001546435C07F8013D54EA0503F1D132AB0C
:10588000DB1B0D93E5E54BF0400B99F8006035E527
:1058900099F800606C2E03BF99F801604BF0200B63
:1058A00009F101094BF0100B28E5002A40F0678749
:1058B0001BF0200F40F04E851BF0100F40F00581CB
:1058C0001BF0400F00F001810E9A136804320E9213
:1058D000BDF82C201A80DEE499F8006000297FF4DE
:1058E0000DAD0122202109E599F800602A2E09F169
:1058F000010000F00787A6F13003092B814698BF0D
:10590000002000F25B8619F8016B00EB800003EBCE
:105910004000A6F13003092BF5D90990F0E44BF0D3
:10592000800B99F80060E9E499F8006001222B21CE
:10593000E4E40E9AB24B14681693782630230432AE
:105940008DF878304BF0020B0E9200258DF87960BF
:10595000022360E5002A40F00E87AA4B1693FEE66C
:105960000E99CDF818B00A688DF8A02000230A46D9
:105970009A468DF87730043201230793CDF824A09E
:10598000CDF840A00E920D9328AF70E5A6F130033C
:10599000002019F8016B00EB800003EB4000A6F13A
:1059A0003003092BF5D90C90AAE4002A40F0DF86D9
:1059B0004BF0100B26E74BF0010B99F800609DE4CB
:1059C0000E9C23680C9318460028234603F1040319
:1059D000FFF6B7AE0E9399F800608FE4002A40F00E
:1059E000B7860E9D1BF0080F05F1070500F03D84FA
:1059F00025F0070393ED007B8DED127B03F1080288
:105A00000E92DDE9121222F0004318911993DDE99C
:105A100018454FF0FF32204629467B4B04F0A2FB8D
:105A2000002840F0A2834FF0FF32774B20462946F2
:105A300004F07AFB002840F0988300220023DDE97F
:105A4000120104F067FB002840F038849DF877A02D
:105A50006E4F6F4B032200212BF0800007920991BB
:105A60000690472ED8BF1F460D921091F9E44BF0D7
:105A7000080B99F8006041E40E9D073525F00703F7
:105A800003F10802D3E900450E920023C3E40E9D02
:105A9000073525F0070303F10802D3E900450E920C
:105AA0000123B8E4002A40F05E86C6B1002301223B
:105AB0009A4607928DF8A060CDF818B08DF877302F
:105AC000099310930D9228AFD1E40E9A1368043213
:105AD0000E920B9A1A60FFF7DEBB279C1DE5279BF1
