:020000040800F2
:10000000000002204D210008812100088121000804
:1000100081210008812100088121000800000000E2
:100020000000000000000000000000008121000826
:1000300081210008000000008121000881210008C2
:100040008121000881210008812100088121000808
:1000500081210008812100088121000881210008F8
:1000600081210008812100088121000881210008E8
:1000700081210008812100088121000881210008D8
:100080008121000881210008812100080000000072
:1000900000000000000000000000000081210008B6
:1000A00081210008812100088121000881210008A8
:1000B0008121000881210008812100088121000898
:1000C0008121000881210008812100088121000888
:1000D0008121000881210008812100080000000022
:1000E0008121000881210008812100080000000012
:1000F0000000000000000000000000008121000856
:1001000000000000812100088121000881210008F1
:1001100000000000000000000000000000000000DF
:100120008121000881210008812100088121000827
:100130008121000800000000000000000000000015
:100140000000000000000000000000008121000805
:1001500081210008812100088121000881210008F7
:10016000812100088121000800000000000000003B
:10017000000000000000000000000000000000007F
:1001800000000000812100080000000000000000C5
:10019000812100088121000810B5054C237833B96E
:1001A000044B13B10448AFF300800123237010BD4A
:1001B000600B00200000000078C700080C4B43B122
:1001C0000C480D4910B5AFF300800C48036823B903
:1001D00010BD0A48036833B97047094B002BF7D0AC
:1001E000BDE810401847064B002BF5D0184700BF5C
:1001F0000000000078C70008640B0020580B0020A6
:1002000000000000154B002B08BF134B9D46A3F5C3
:10021000803A00218B460F461348144A121A04F004
:10022000EDFF0F4B002B00D098470E4B002B00D05A
:1002300098470020002104000D000D48002802D03E
:100240000C4801F0C0F904F0D3FD2000290001F0B2
:10025000B5FA01F0B5F900BF000008000000022067
:1002600000000000AD170008600B0020E41600201D
:10027000C71500080000000070470000024A13681C
:1002800001331360704700BF840F0020024A1368D7
:1002900001331360704700BF3C0E0020036818470D
:1002A00008B10B68036070477047704710B504468B
:1002B00001F0BAF9204610BD10B5094B036003F1F7
:1002C00020027C330446C0F8BC20C0F8C030BC30EB
:1002D00003F034FE204603F01DFB204610BD00BF96
:1002E00044C10008A0F1BC00E6E7A0F1C000E3E7CC
:1002F00010B5044603F080FE237E1BB103F040FCE2
:100300000023237603F0A4FE204610BD38B5002359
:10031000037604460D4603F06FFE2046294601F0A1
:100320006BFC03F095FE204638BD38B504460D46FB
:1003300003F062FE2946204601F0B8FBBDE83840D4
:1003400003F086BE38B504460D4603F055FE294637
:10035000204601F017FDBDE8384003F079BE0000EB
:1003600008B500210948FFF7EDFF00210848FFF715
:10037000E9FF00210748FFF7E5FF07480021FFF7E5
:10038000E1FF6420BDE8084003F0A9BE480D00204D
:10039000800D00202C0D0020640D002008B5FFF713
:1003A000DFFF40F214510748FFF7CCFF064840F248
:1003B0001451FFF7C7FF4FF41670BDE8084003F073
:1003C0008EBE00BF2C0D0020800D002008B5FFF769
:1003D000C7FF40F214510748FFF7B4FF064840F248
:1003E0001451FFF7AFFF4FF41670BDE8084003F05B
:1003F00076BE00BF480D0020640D002008B542F213
:1004000010710B48FFF79EFF42F210710948FFF789
:1004100099FF42F210710848FFF794FF42F2107101
:100420000648FFF78FFFBDE80840FFF799BF00BF00
:10043000480D0020800D00202C0D0020640D0020B0
:1004400010B5094C0948216801F2DC51FFF77AFF29
:1004500021680748C1F5BB610431FFF773FF1E2017
:10046000BDE8104003F03BBEE40D0020480D002025
:10047000800D0020C36810B504460BB19B689847F7
:10048000204610BD38B50546064B45F8283B0446C6
:1004900003F0E3F82846FFF7EDFF204603F034F9B8
:1004A000204638BDD0C1000810B50446FFF7EAFF6A
:1004B000204601F0B9F8204610BD0000034610B5F3
:1004C00053F8042B044602B9036022689A4204D010
:1004D0005B220349034803F061FD206810BD00BFA3
:1004E00070B9000892B9000808B50248FFF7E6FFA6
:1004F00008BD00BF4413002008B50248FFF7DEFF27
:1005000008BD00BF4413002070B504460D461646D2
:1005100000211C2204F072FE294620460A4D03F0F9
:10052000A9FA0A4BE3612846FFF7C8FF314604F1F8
:10053000200000F0FDFA2846FFF7C0FF2368E268BC
:100540001B041360204670BD4413002054B90008FA
:1005500070B5054683680A4E55F8202B1A6004468C
:100560003046FFF7ABFF284600F056FB0546304605
:10057000FFF7A4FF2368E2681B041360284670BDE0
:100580004413002008B511482DED028BFFF7E0FF62
:1005900008EE100A0E48FFF7DBFF0E4B07EE900A3D
:1005A00093ED007A0C4B78EE677ABDEC028B77EE18
:1005B000C77A9FED0A7AC3ED007A67EE877A084B17
:1005C000FDEEE77AC3ED007A08BD00BF540C0020B1
:1005D000C00C0020E00D0020E80D002000001644B3
:1005E000E40D002038B5102204460D46002104F029
:1005F00005FE0CB12B682360014BE36038BD00BFE2
:1006000064B9000870B52DED028B8AB00AA9924C2E
:1006100041F8144D06A8FFF7E5FF06A98F48904D55
:1006200002F03FFF06A8FFF725FF0AA906A841F838
:10063000184DFFF7D7FF06A988488A4C02F057FFEC
:1006400006A8FFF717FF0AA906A841F81C4DFFF7F7
:10065000C9FF06A9844802F024FF06A8FFF70AFF95
:100660000AA906A841F8204DFFF7BCFF06A97E485D
:100670007E4C02F03CFF06A8FFF7FCFE4FF4FA7038
:1006800003F02DFD7A48FFF763FF08EE100A794862
:10069000FFF75EFF07EE900A38EE678A642084ED6C
:1006A000008A03F01CFD7248FFF752FF08EE100AA3
:1006B0007048FFF74DFF07EE900A38EE678A642016
:1006C00084ED008A03F00BFD6948FFF741FF94EDCC
:1006D000007A07EE900A674837EE878AFFF738FFFF
:1006E00007EE900A38EE677AF6EE008A27EE287A4F
:1006F0005F4884ED007AFFF72BFF94ED007A07EE58
:10070000900A5C4837EE878AFFF722FF07EE900ACF
:1007100038EE677A564827EE287A84ED007AFFF79C
:1007200017FFD4ED007A07EE100A524837EE278AF9
:10073000FFF70EFF07EE900A78EE677A0AA94E4B94
:1007400041F8243D67EEA87A06A8C4ED007AFFF7C9
:1007500049FF03F051FC6B6B1BB995F83830002B47
:1007600054D14648FFF786FE099B1BB15B6843489E
:1007700006A99847099B6B634FF4FA720023384827
:100780003F4DDFED408A404E02F04FFF03F060FC2A
:1007900006A8FFF76FFE3D493D4803F0E1FB42F23A
:1007A00010713C48FFF7C1FD42F210713A48FFF763
:1007B000BCFD42F210713948FFF7B7FD42F21071EB
:1007C0003748FFF7B2FDFFF7CBFD2846FFF7C0FE25
:1007D00007EE900AF4EEE87AF1EE10FA0BDD3046FF
:1007E000FFF7B6FEDFED2F7A07EE100AB4EEE77AD8
:1007F000F1EE10FA0DDCFFF723FEE6E729DD2A49CA
:10080000234803F0ADFBFFF7E1FD22E003F09EF982
:10081000A7E7FFF7F3FD1648FFF79AFE08EE100A68
:100820001448FFF795FE07EE900A94ED007A1F4BEF
:1008300078EE677A77EEC77AF5EEC07AF1EE10FAC5
:10084000C3ED007ADAD81A49114803F089FBFFF7A3
:10085000A5FDFFF7D3FDB8E77D020008340F0020A7
:10086000A00D00208D020008EC0D0020E00D0020FE
:10087000540C0020C00C002085050008C80D002085
:100880007C0B00200AD7A33CE80B0020A6B9000887
:10089000180F0020480D0020800D00202C0D002096
:1008A000640D0020EC51B83DB4B90008E80D0020FB
:1008B000AAB9000810B50446FFF7FEFC204600F078
:1008C000B3FE204610BDA0F1BC00F3E7A0F1C000CC
:1008D000F0E7000073B5524D524C534E4FF416538F
:1008E0000093032200230221284602F071FE2246D3
:1008F0004E49284600F062FE4D4D00222A21304626
:10090000FFF702FE30464B4E2246294600F056FEC7
:1009100004222B213046FFF7F7FD3046464E224693
:10092000294600F04BFE212210213046FFF7ECFD56
:100930003046424E2246294600F040FE2022172132
:100940003046FFF7E1FD30463D4E2246294600F095
:1009500035FE3C4D07213046FFF7D8FC30463A4E75
:100960002246294600F02AFE1A213046FFF7CEFC27
:100970003046364E2246294600F020FE16213046EB
:10098000FFF7C4FC3046324E2246294600F016FEE0
:1009900027213046FFF7BAFC29462E4D2246304625
:1009A00000F00CFE2C4E0F21284602F019FD2846BF
:1009B0002A4D2246314600F001FE0121284602F070
:1009C0000FFD2846264D2246314600F0F7FD284609
:1009D00002F072FE2846234B40F8283B10220021EB
:1009E00004F00CFC012385F8383028461E4D1F49C1
:1009F000224600F0E3FD284602F0EEFF22461C4CA2
:100A00001C49284600F0DAFD1C220021204604F093
:100A1000F5FB0521204602B0BDE8704003F02AB87E
:100A20005C0E002098010020C00C0020B9020008D4
:100A3000AB020008E80B00207C0B0020540C0020C7
:100A4000480D0020F1020008800D00202C0D002030
:100A5000640D0020340F002045340008EC0D002008
:100A6000A00D0020D0C10008880F002085040008D8
:100A7000400E0020973900081FB5044610220021BF
:100A8000684604F0BBFB94F84A20012301930293CB
:100A9000122A47D8DFE802F00C0B0A232527292B5E
:100AA0002D2F31333537393B3D3F4400022300932E
:100AB0001D4A536823F4400369465360204601F001
:100AC000E7FC204601F030FC0A21204601F08CFCB6
:100AD00040BB204601F0D8FC80B204B010BD032317
:100AE000E5E70423E3E70523E1E70623DFE7072340
:100AF000DDE70823DBE70923D9E70A23D7E70B2340
:100B0000D5E70C23D3E70D23D1E70E23CFE70F233F
:100B1000CDE7064BCBE71123009307230293C7E7EA
:100B20001223F9E70020D8E700230140120000104B
:100B3000A1F1F0039BB20F2B73B504460D464ED9BD
:100B40002C49284602F0D6FF2A492060284602F0A8
:100B5000EDFF28490646284602F090FF236801333E
:100B600004D145222449254803F018FA731C04D106
:100B700046222149224803F011FA2268214BA4F8A9
:100B80004850C6F304369A4284F84A600FD11E4991
:100B90000B6813BB01931D4B5A6C42F480725A646C
:100BA0005B6C03F480730193019B01230B600023B2
:100BB000012223646360A3602361A36123626362F3
:100BC000E362A362E360E26123636361204601F0B4
:100BD00001FB10B10E4803F0F3F902B070BD0D49EE
:100BE000284602F087FF0B492060284602F09EFF4E
:100BF0000646B3E7C0B900089CBC0008F2BC000878
:100C00001CBD000800200140A80F00200038024051
:100C100035BD000874BA000808B5FFF72DFF07EED0
:100C2000900AB8EE677ADFED037A67EE277A17EE5F
:100C3000900A08BD010880397FB50023072855D8E0
:100C4000DFE800F00413202D3A54544700932A4B58
:100C50002A481A6B42F001021A631B6B03F001036E
:100C60000093009B07B05DF804FB0193224B2448DE
:100C70001A6B42F002021A631B6B03F0020301932A
:100C8000019BEFE702931C4B1E481A6B42F00402D3
:100C90001A631B6B03F004030293029BE2E70393C6
:100CA000154B19481A6B42F008021A631B6B03F0CC
:100CB00008030393039BD5E704930F4B13481A6B68
:100CC00042F010021A631B6B03F010030493049BA1
:100CD000C8E70593084B0E481A6B42F080021A636E
:100CE0001B6B03F080030593059BBBE7094803F0EA
:100CF00067F90020B6E700BF00380240000002405C
:100D00000004024000080240000C024000100240B3
:100D1000001C02404CBD0008431C10B5044604D121
:100D200074220649064803F039F92046002100F0F4
:100D300069FD04F00F040120A04010BD6DBD000846
:100D4000B0BD000870B504464B1C0E46218216D07B
:100D5000C1F30310FFF770FF05463046FFF7DCFFD5
:100D6000238A074A656103F00F03206052F823309D
:100D7000A36105F1100318356360A560E56070BDDF
:100D8000ECBE0008B0F9100000F0D4BD10B58369C6
:100D9000446971B9216893FAA3F2B2FA82F203208E
:100DA000520000FA02F221EA020293FAA3F322604F
:100DB00010BD226893FAA3F1B1FA81F193FAA3F37B
:100DC0000320490000FA01F1B3FA83F322EA010299
:100DD0005B00012101FA03F31343236010BD0000FF
:100DE0004C22F0B54243184EDFF868C0131D33445F
:100DF000074600244FF0010E16448C4205D13946B7
:100E00001248BDE8F04003F0DBB832680EFA04F592
:100E1000154216D01A6BDCF814000EFA02F20242E8
:100E20000FD09D69CCF81420186850B12B691A4274
:100E3000074B08BF02211B6818BF0121BDE8F04025
:100E4000184701340433D8E7AC0F0020EABD00088E
:100E5000C0110020003C014006210846FFF7C0BF3A
:100E600005210846FFF7BCBF01210420FFF7B8BFEA
:100E700001210320FFF7B4BF01210220FFF7B0BF1B
:100E800001210846FFF7ACBF01210020FFF7A8BFF2
:100E9000012910B518D11B4C838952B1A26803F007
:100EA0000F0399401143A160836843F001038360FD
:100EB00010BDA26803F00F03994022EA0101A1606E
:100EC000836823F00103F2E70229F1D10D498389F8
:100ED0005AB1CC6803F00F03012202FA03F3234353
:100EE000CB60836843F00203E1E7CA6803F00F03B5
:100EF000012404FA03F322EA0303CB60836823F09E
:100F00000203D4E7003C0140B0F90C3099B270B54F
:100F100001F00F0606F00C0404F1804404F59C3443
:100F200001F00301A56889000F228A40C3F303136F
:100F300025EA02058B402B43A3600F4B0122196861
:100F4000B240114319608468E50742BF99681143B4
:100F50009960A10742BFD9680A43DA6090F900306E
:100F6000002B08DB5909012203F01F0302FA03F3E7
:100F7000024A42F8213070BD003C014000E100E02F
:100F80002DE9F04F92464A1C85B080460C4666D04B
:100F900000220392334A344F516C41F48041516432
:100FA000526C02F480420392039A04F00F090C225F
:100FB00002FB0972C4F303105568062D47D8DFE819
:100FC00005F0043A3C3E40424400284E0193FFF7AE
:100FD00033FE0C2101FB09F17A1857F801E0244F88
:100FE000A8F80C404C21694301247B5892F9082051
:100FF000C8F8045004FA0EF44FF0000B1C4388F8B4
:101000000020C8F808B07C50132101FB05E507EB70
:101010008501019B4B60174BC861C3F800A0164BBC
:10102000C1F834909B681032404643F82260FFF7C5
:101030006BFF584610E0114EC8E7114EC6E7114E3F
:10104000C4E7114EC2E7114EC0E7114EBEE711488A
:1010500002F0B6FF4FF0FF3005B0BDE8F08F084654
:10106000FAE700BF0038024014BE0008890E0008ED
:10107000AC0F0020C011002000ED00E0810E000840
:10108000790E0008710E0008690E0008610E000854
:10109000590E0008C3BD00088389184A03F00F03E6
:1010A000012110B501FA03F39468DB431C409460FE
:1010B000D4681C40D46014682340136090F9003059
:1010C000002B0CDB5A0903F01F0301FA03F3203253
:1010D0000B4941F82230BFF34F8FBFF36F8F90F968
:1010E0000030002B09DB5A09012103F01F0301FA2C
:1010F00003F36032024941F8223010BD003C014048
:1011000000E100E0838903F00F020C235343104AEF
:1011100070B54468D658FFF7BFFF4C210D4A6143B4
:10112000012000FA06F55058132303FB046320EA5C
:101130000500505002EB830000214160981D0C33E4
:1011400002EB800002EB83034160596070BD00BF79
:1011500014BE0008AC0F002070B5134C23681A6948
:10116000950707D5DA68900704D56FF002021A6177
:1011700002F022FD23681A69510713D5DA68520775
:1011800010D56FF00402094E1A615D6A3368EB1ADC
:10119000B3F57A7F06D301F00DF8236805F57A726E
:1011A0009A63356070BD00BF80160020C411002016
:1011B00030B589B001A903A801F0B8FC01F086FCA4
:1011C00000230293254B01901A6C254C42F0080233
:1011D0001A641A6C02F008020292029A1A6A42F029
:1011E00008021A621A6A22F008021A62069AA3F525
:1011F0000B3323604FF0FF33E3601A4B002A2AD1F0
:10120000B0FBF3F001380025606015482561A5604A
:10121000656101F06BFD144B144A9B681048C3F8DC
:101220000821134B4FF480225A60294601F042FEF8
:1012300004210B4801F03EFE23680E4A596A1160F2
:10124000126802F57A729A63DA68284642F004025C
:10125000DA6009B030BD4000D2E700BF003802407C
:101260008016002040420F0000ED00E059110008F8
:1012700000E100E0C411002010B588B002F0BCFE0F
:10128000052101A802F0F6FB0424039B019A1A60D1
:10129000962002F024FF019B049A1B041360962001
:1012A00002F01DFF013CF0D10424039B019A1A6057
:1012B0004FF4C87002F013FF019B049A1B041360E3
:1012C0004FF4C87002F00BFF013CEED1DCE70000E8
:1012D00070B50D46A0B0044602F08EFE2B462246A5
:1012E0008021684605F01EFF051E03DC02F0B0FEFB
:1012F00020B070BD094B1B6823B9032202210848A6
:1013000000F0FEFD064E00241DF8041030460134A6
:1013100000F00AFFA542F7D1E8E700BF4013002024
:10132000301600200FB407B504A951F8040B019141
:10133000FFF7CEFF03B05DF804EB04B0704708B5CB
:1013400001F0E2FF00F01EFF01F0D4FFBDE808400D
:1013500001F0DABF08B5084B1B685BB902210748EA
:10136000032200F0CDFD4FF416510448BDE80840BB
:1013700000F070BE08BD00BF4013002030160020F2
:10138000022810B501DC002010BDC31E0B4A52F824
:101390002300002142F8231030B902F031FF092365
:1013A00003604FF0FF3010BD03685B699847041E6F
:1013B000E9DA02F025FF64420460F2E7C811002078
:1013C0000228F8B50D4614460EDC134B1B680BB90A
:1013D000FFF7C0FF114E2F19BD4210D015F8011BA9
:1013E000304600F0A1FEF7E703380D4B53F820001C
:1013F00038B902F005FF092303604FF0FF3420469F
:10140000F8BD0368DB689847041EF8DA02F0F8FEBE
:1014100063420360F3E700BF401300203016002052
:10142000C8110020022810B50C460BDC104B1B68BD
:101430000BB9FFF78FFF0F4800F064FE2070012406
:10144000204610BD03380C4B53F8200030B902F091
:10145000D7FE092303604FF0FF34F1E703689B6870
:101460009847041EECDA02F0CBFE63420360E7E724
:101470004013002030160020C8110020022810B5AB
:1014800016DD03380B4B53F820402CB902F0B8FEA0
:1014900009230360204610BD23682046DB69984776
:1014A000041EF7DA02F0ACFE644204600024F1E7A7
:1014B0000124EFE7C8110020022810B506DC02F075
:1014C0009FFE1D2303604FF0FF3010BD03380A4B11
:1014D00053F8200018B902F093FE0923F2E70368DD
:1014E0001B699847041E04DA02F08AFE6442046015
:1014F000E9E7204610BD00BFC8110020022838B51A
:101500000D4604DC4FF400534B60002038BD033817
:101510000D4B53F8204034B902F072FE09230360EA
:101520004FF0FF3038BD23682046DB69984700281C
:1015300014BF4FF400534FF400436B602368204600
:101540009B6A98472861E0E7C811002008B5012090
:1015500000F036F80C4A136810B51844EFF3088110
:10156000884205D3094B0C221A604FF0FF3010BDA2
:1015700007490C6824B10749096821448842F1D21F
:101580001060184610BD00BF9C010020E01600202E
:10159000D0120020D4120020074C08B5236805465D
:1015A000986802F067FF2368D86802F063FF0DB106
:1015B000FFF762FEFEE700BFA40100200120704794
:1015C00008B5FFF7E9FF01207047002103F00EBFC7
:1015D0001FB504220C463A230DEB020101900DF1D8
:1015E00009008DF8083003F00BFD214602A803F036
:1015F00085F8044638B101980368DB69984710B153
:101600002046FFF7E2FF204604B010BD7047704748
:1016100008B5FFF7FBFF08BD08B5FFF7F8FF08BDE9
:1016200008B103F095BC7047FFF7FABF10B5044648
:101630000948FEF743FF0023084A194652F82300E1
:10164000A04208BF42F823100133402BF6D10248D4
:10165000FEF734FF10BD00BFC8120020C8110020E3
:101660002DE9FF4789464049064603F0DDFF044661
:1016700028B9FFF76FFE204604B0BDE8F0873B496C
:10168000304603F0D1FF18B9FFF764FE0124F2E7FA
:101690003749304603F0C8FF18B9FFF75BFE022454
:1016A000E9E73448344DFEF709FF0024A84655F811
:1016B0002470002F40D00134402CF8D102F0A0FD5E
:1016C000182303602B48FEF7F9FE0EE0314602A80E
:1016D00002F05CFB02A802F09DFB064640B902F056
:1016E0008FFD0223036045F824604FF0FF34C2E70A
:1016F00002A802F07DFB074602A81FB102F081FBA1
:1017000001902BE002F06BFB06460028E7D003684F
:1017100002A8D3F808A002F057FB29F48033024650
:1017200001A93046D0470646C0B102F069FD7642B5
:10173000066045F82470D8E74FF0FF330D4845F8B0
:101740002430FEF7BBFE337801973A2BBED104223A
:10175000711C02A803F054FC029B0193019B48F802
:101760002430033487E700BFDCBE0008E3BE000876
:10177000D4BE0008C8120020C8110020704770476E
:10178000074B08499A68084810B5043A52F8044FC4
:1017900041F8044F8142F9D14FF000529A6010BDD8
:1017A00000ED00E0FCFFFF1F9401002008B5FFF7EB
:1017B000E7FFFFF7C4FDFFF7E2FF08BD08B5FFF73D
:1017C000DDFFBDE80840FEF71DBF30B5C36891FAE4
:1017D000A1F4B4FA84F491FAA1F10325B1FA81F1EC
:1017E000640005FA04F4490023EA040302FA01F153
:1017F0001943C16030BD012A02D0022A18BF00225D
:10180000FFF7E3BF2DE9F0410E46411C044604D129
:101810003E224449444802F0C1FB04F00F08434B08
:10182000C4F3031053F82850FFF706FA06F0070731
:101830000446836895FAA5F1B1FA81F195FAA5F20B
:101840000320490000FA01F1B2FA82F223EA01030F
:101850005200022101FA02F21343A36087425AD8D0
:10186000DFE807F05E1D021DB8F1070FC6F3032085
:101870003BD9626A2B0A93FAA3F1B1FA81F193FA88
:10188000A3F34FF00F0EB3FA83F389000EFA01F1C0
:101890009B0022EA010200FA03F3134363623B4612
:1018A000226895FAA5F0B0FA80F095FAA5F14FF00C
:1018B000030EB1FA81F140000EFA00F0490022EA6D
:1018C00000028B40013F1343012F236005D863685A
:1018D00032074CBF2B43AB436360C6F3011229466A
:1018E0002046BDE8F041FFF786BF226A95FAA5F3CE
:1018F000B3FA83F395FAA5F14FF00F0EB1FA81F127
:101900009B000EFA03F3890022EA030200FA01F3B6
:1019100013432362C3E767220249054802F03EFBF6
:101920000023BDE72CBF0008B0BD0008ECBE0008D6
:101930006DBF0008431C70B506460D4604D18822D1
:101940001B491C4802F02AFB06F00F021A4BC6F393
:10195000031053F82240FFF76FF904FB04F201680B
:1019600002EB42030B40B3FBF2F3013B012B05D822
:10197000EB1E022B436809D823434360032D08D193
:1019800001222146BDE87040FFF735BF23EA04037A
:101990004360012DF4D0052D01D0022D01D102228A
:1019A000EFE721460022BDE87040FFF70EBF00BF01
:1019B0002CBF0008B0BD0008ECBE000830B507EE33
:1019C000101A284B02681A60B5EEC07AF1EE10FAD0
:1019D00089B0054628D4F7EE007AB4EE677AF1EEC6
:1019E00010FAC8BFB0EE677AD5ED037AF8EE677AE1
:1019F000602267EE877A0192FCEEE77AAA68C5ED6D
:101A0000047A17EE903AB3FBF2F3029300230393A8
:101A100005930693049307932B7D013B032B16D864
:101A2000DFE803F01B0517199FED0F7ADCE70424AC
:101A3000224601A90B4801F0B9F910B10B4802F098
:101A4000BFFA6B7D074821464BB101F041FA09B05E
:101A500030BD0824ECE70C24EAE70024E8E701F0B5
:101A600013FAF4E7D812002000000000E1BF0008DC
:101A7000C368ABB107EE903AD0ED046AB8EE677A6E
:101A8000F8EE666AC6EE877AB7EE007AF4EE477A29
:101A9000F1EE10FAC8BFF0EE477A17EE900A7047E1
:101AA000DFED017AF9E700BF000000002DE9F04703
:101AB0004C4C0268226086B000230E460093054617
:101AC000FFF7D6FF116A41F211131942074608D1F8
:101AD000116A40F24443194202BF136823F0010324
:101AE0001360694601A801F021F83F4829680023E6
:101AF00080465FFA83F9013350F839208A42F8D1E1
:101B000011B93A4802F05CFA08EBC90898F80430B9
:101B10006BBB00F0DBFF0090049800990123AB60E1
:101B2000334B48BBB1FBF3F3013B636006F1FF3E6F
:101B30004FF0000962682E4BC4F80CE04FEA410CEC
:101B4000CA46BCFBF3FCB1FBF3F14FF6FE787346DB
:101B5000B3F5803F14D2B2F5803F11D2BAF1000F35
:101B600000D06260B9F1000F1ED0E3601CE000F00D
:101B7000C5FF00900598D0E74A00B2FBF3F3D3E726
:101B8000AB685B00AB6030BB01FB03F2BEFBF3F361
:101B9000434502F1FF3221D8B2F5803F1ED31548EC
:101BA0006260E36002F00CFA00230E482361A36038
:101BB00001F0B6F810B10F4802F002FAEE603946B3
:101BC0002846FFF7FBFE2268136843F00103136009
:101BD00006B0BDE8F0870CFB03F2D7E74FF0010930
:101BE000CA46B5E7D8120020F8BF0008CCBF0008ED
:101BF00040420F00E1BF000870B50E46044688B0B1
:101C00005449304601F076FF2060013004D12E2285
:101C10005149524802F0C2F94E49304601F086FF60
:101C2000431C054604D132224B494D4802F0B6F917
:101C3000C5F304334B4A23752368C5F340459342EB
:101C400065754FF000021AD10092474A516C41F07D
:101C500001015164526C02F001020092009A434A61
:101C6000934229D1002305933F4B5A6C42F48032B2
:101C70005A645B6C03F480330593059B58E0B3F121
:101C8000804F0BD10192384A116C41F0010111646F
:101C9000126C02F001020192019AE0E734498B4292
:101CA0001AD10292304A116C41F002011164126C97
:101CB00002F002020292029A2E4A93421AD10023A3
:101CC0000693294B5A6C42F400325A645B6C03F45D
:101CD00000330693069B2BE027498B421AD10392CF
:101CE000214A116C41F004011164126C02F00402EB
:101CF0000392039A214A93421AD1002307931A4B65
:101D00005A6C42F480225A645B6C03F4802307937C
:101D1000079B0DE01A498B42A1D1134B04921A6C18
:101D200042F008021A641B6C03F008030493049B3E
:101D30000849304601F0A2FE0023E360236101233D
:101D4000A680A36044F620612046FFF7AFFE08B0EE
:101D500070BD00BFA4BA00086FBF0008B4BF000880
:101D60001CBD000800000140003802400040014056
:101D700000040040004401400008004000480140C9
:101D8000000C004007EE901AB8EEE77AD0ED037A27
:101D9000F8EE677AC7EE276A16EE901AFFF70EBEC6
:101DA00042681649920110B504685450531882686D
:101DB0005A60C2689A600269DA6042691A61026A0E
:101DC0009A610022DA84DA619A84DA859A85B0F918
:101DD0001A2001320AD108225A61184601F0A5F9E9
:101DE00058B10748BDE8104002F0EAB8B0F9182031
:101DF00001320CBF04220C22EEE710BDB01300200C
:101E000040C000084368094A9B0182B0D3581A6851
:101E1000120706D5002201921A6801925A680192AF
:101E2000019A1868C0F3401002B07047B013002048
:101E30004368034A9B01D3581868C0F3C010704729
:101E4000B0130020002808DB4209012300F01F0026
:101E500003FA00F0014B43F82200704700E100E074
:101E600000280DDB4309012200F01F0002FA00F0F8
:101E70002033044A42F82300BFF34F8FBFF36F8F24
:101E8000704700BF00E100E0F7B5154E074656F871
:101E9000200010B3134CBD0163591A68120606D511
:101EA000DB68190603D5104B01211B68984763595D
:101EB0001A68920608D5DB68980605D50A4B56F8CD
:101EC00027001B680021984763591A68110704D539
:101ED0005A69D20744BF5B68019303B0F0BD00BFED
:101EE00018130020B0130020141300200020FFF767
:101EF000CBBF0120FFF7C8BF0520FFF7C5BF00001B
:101F0000F0B50E4685B0044649493046154601F005
:101F1000F1FD48490746284601F0ECFD01463846E8
:101F200001F0CAFD2060013004D13E2242494348FD
:101F300002F034F82368424A93421ED002F58062D0
:101F400093425ED0A2F5504293422BD13D4B1A6A88
:101F500042F400321A621A6A22F400321A62002233
:101F600002921A6C42F400321A641B6C03F40033C0
:101F70000293029B0123636014E0324B5A6A42F0E1
:101F800010025A625A6A002122F010025A6201912C
:101F90005A6C42F010025A645B6C616003F01003EB
:101FA0000193019B2249304601F068FD21492846F2
:101FB00001F064FD721C03D001213046FFF7BAFC2A
:101FC0006B1C03D001212846FFF7B4FC4FF41653D5
:101FD000A3600023E360236163612362268365833A
:101FE0002046FFF7DDFE2268174B9A4207D1174BB8
:101FF000174801221A6021464C2203F001F805B06F
:10200000F0BD104B5A6A42F020025A625A6A22F01E
:1020100020025A62002203925A6C42F020025A6453
:102020005B6C03F020030393039B0523A3E700BF2E
:1020300048BC0008F4BB000858C00008AFC0000846
:1020400000100140003802400044004040130020CE
:10205000301600208160FFF7A3BE0000034B19601B
:102060004168034B43F82120704700BF1413002040
:10207000181300204368012B30B416D0052B17D05D
:10208000CBB91B4C25201B4D9B01D2B1EA58D3681C
:10209000A1B943F02003D360174B00F110029B68F5
:1020A00043F8224030BCFFF7CDBE144C2620EAE7AF
:1020B000134C4720E7E700242046E4E743F0800381
:1020C000E9E7EB58DA6849B922F02002DA60DB6808
:1020D00013F0800F09D130BCFFF7C2BE22F080029E
:1020E000DA60DB6813F0200FF4E730BC704700BF04
:1020F000ED1E0008B013002000ED00E0F31E000804
:10210000F91E000838B5446805462846FFF77AFEF0
:102110000028FAD0A401034B1B595868C0F30800EB
:1021200038BD00BFB013002070B5456806460C46A8
:102130003046FFF77DFE0028FAD0AD01024B5B5917
:10214000C4F308045C6070BDB0130020DFF820D039
:10215000002103E0074B5B58435004310648074B0E
:1021600042189A42F6D301F023F8FEF74BF8704775
:102170000000022084C70008980100205C0B0020AA
:10218000FEE7000008B50A4B1A6842F400721A60B4
:102190001A6842F480621A601A6842F480721A6007
:1021A0000F20FFF705F800F00BFA002008BD00BF74
:1021B000003C0240024A136801331360704700BFBD
:1021C0007C160020014B1868704700BF7C16002069
:1021D0007047000010B50446002800F09F80036C93
:1021E00023B9436480F83C30FFF7F2FF236CDB0631
:1021F00000F19280236C23F4885323F0020343F010
:1022000002032364464B5A6822F440325A605A68EB
:1022100061680A435A60236821695A6822F480720F
:102220005A605A6842EA01225A605A68A16822F04C
:1022300040725A605A680A435A609A68E16822F408
:1022400000629A609A680A439A603649A26A8A4292
:1022500056D0996821F07061996099680A439A6034
:102260009A68E16A22F040529A609A680A439A603A
:102270009A68A16922F002029A609A6842EA4102D1
:102280009A60226A002A43D05A6842F400625A6077
:102290005A6822F460425A604FF4604292FAA2F205
:1022A000B2FA82F1626A5868013A8A4002435A607F
:1022B000DA6AE16922F47002DA62DA6A013942EA22
:1022C0000152DA629A68216B22F400729A609A686D
:1022D00042EA41229A609A68616922F480629A60B7
:1022E0009A68002042EA81229A606064236C23F09D
:1022F000030343F001032364002384F83C3010BD42
:102300009A6822F070629A609A6822F04052AEE7B2
:102310005A6822F40062CAE70120EDE7012010BDEF
:10232000002301400100000F82B00023019390F8C8
:102330003C30012B4ED0012380F83C3003689A6872
:10234000D10705D59A68D20714D4002002B070478F
:102350009A68214942F001029A60204A1268B2FB51
:10236000F1F202EB42020192019A002AEAD0019AAC
:10237000013AF8E7026C22F4E06222F0010242F432
:10238000807202645A68510541BF026C22F44052C7
:1023900042F480520264026C12F480521CBF426C00
:1023A00022F006024264002280F83C206FF02202F4
:1023B0001A600B4A5268D20608D1986810F0405053
:1023C000C3D19A6842F080429A60BFE7054A9342BF
:1023D000BBD1F2E70220B9E740420F00A001002084
:1023E000002301400020014003689A6870B556053B
:1023F00004460D460BD59B68D80508D5236C43F0E1
:1024000020032364002384F83C30012070BDFFF7D3
:10241000D9FE064623681A6892070CD56FF012029F
:102420001A60226C42F4007222649A6812F0405FD3
:1024300013D0002070BD691CEDD045B9236C43F06A
:1024400004032364002384F83C30032070BDFFF7AD
:10245000B9FE801B8542DDD2F0E7A269002AE8D1EF
:10246000DA6A12F4700F02D09B685B05E1D4236C2A
:1024700023F480732364206C10F48050D9D1236C32
:1024800043F00103236470BD0368D86C70470000FB
:10249000F7B50023019390F83C30012B6AD00D680A
:1024A00004688A680123092D80F83C30AEB22AD92D
:1024B00006EB4603E7681E3B4FF0070E0EFA03FEDD
:1024C00027EA0E07E760E76802FA03F33B43E3609D
:1024D0004A68062A4FEA820325D81344676B591FBE
:1024E0001F238B4027EA03036363626B06FA01F143
:1024F000114361632D4B9C4234D0002380F83C3063
:10250000184603B0F0BD276905EB45034FF0070EF1
:102510000EFA03FE27EA0E072761276902FA03F382
:102520003B432361D4E70C2A0ED81344216BA3F15B
:1025300023021F23934021EA03032363236B06FA3C
:1025400002F21A432263D5E71344E16A413B1F229A
:102550009A4021EA0202E262E26A06FA03F11143BA
:10256000E162C7E7122D07D1114A536843F4800393
:102570005360C2E70220C4E70E4B9D4201D0112DEB
:10258000BBD10B494A689D4242F400024A60B4D173
:10259000094B0A4A1B68B3FBF2F20A235343019327
:1025A000019B002BA9D0019B013BF8E700200140D3
:1025B0000023014012000010A001002040420F0043
:1025C000704700000368F7B50446D8073BD423687A
:1025D000990700F1868023681E0700F1D1802368E7
:1025E0005D072AD5002301938E4B8F4D1A6C42F064
:1025F00080521A641B6C03F080530193019B2B687B
:1026000043F480732B60FFF7DDFD06462B68DA0587
:1026100040F1D880A368834D012B40F0DA802B6F06
:1026200043F001032B67FFF7CDFD7E4D064641F2D7
:1026300088372B6F9B0740F1ED80A269002A40F09C
:10264000F980002015E0774B9A6802F00C02042A0A
:1026500007D09A6802F00C02082A0CD15B685A0273
:1026600009D5704B1B689B03B1D56368002BAED1B5
:10267000012003B0F0BD63686A4DB3F5803F11D10E
:102680002B6843F480332B60FFF79CFD654D0646B5
:102690002B689F039BD4FFF795FD801B6428F7D917
:1026A0000320E6E7B3F5A02F04D12B6843F4802381
:1026B0002B60E5E72A6822F480322A602A6822F437
:1026C00080222A60002BDFD1FFF77CFD06462B68B5
:1026D00098037FF57CAFFFF775FD801B6428F6D962
:1026E000DEE7504B9A6812F00C0F07D09A6802F0A0
:1026F0000C02082A16D15B68590213D4494B1A6898
:10270000920702D5E268012AB2D11868F82292FA3B
:10271000A2F2B2FA82F122698A4020F0F8010A435B
:102720001A6058E7E268414BDAB101221A60FFF7FC
:1027300049FD3C4D06462B689B070CD52968F823BC
:1027400093FAA3F3B3FA83F22369934021F0F802DA
:1027500013432B603FE7FFF735FD801B0228EAD9C2
:102760009EE71A60FFF72EFD2E4D06462B689F0749
:102770007FF531AFFFF726FD801B0228F6D98FE7E2
:1027800062692B4B7AB101221A60FFF71BFD254DC0
:1027900006466B6F98073FF522AFFFF713FD801BCE
:1027A0000228F6D97CE71A60FFF70CFD1D4D06469E
:1027B0006B6F99077FF513AFFFF704FD801B0228AD
:1027C000F6D96DE7FFF7FEFC801B02287FF61EAFEF
:1027D00066E7052B04D12B6F43F004032B671EE73C
:1027E0002A6F22F001022A672A6F22F004022A6768
:1027F000002B7FF418AFFFF7E5FC41F2883706465F
:102800002B6F98077FF519AFFFF7DCFC801BB842F0
:10281000F6D945E7FFF7D6FC801BB8427FF609AF33
:102820003EE700BF00380240007000400000474211
:10283000800E47422B4DAB6803F00C03082B3FF48E
:1028400017AF294E0023022A33603ED1FFF7BAFCAE
:1028500007462B68990132D447F6C07797FAA7F755
:102860004FF44032B7FA87F792FAA2F24FF0706154
:10287000B2FA82F091FAA1F1226AE3691343626A23
:1028800002FA07F7A26A5208013A82403B43134317
:10289000E26A144CB1FA81F102FA01F10B436B6068
:1028A00001233360FFF78EFC054623689A013FF54C
:1028B000C8AEFFF787FC401B0228F6D9F0E6FFF709
:1028C00081FCC01B0228C4D9EAE6FFF77BFC044662
:1028D0002B689B017FF5B5AEFFF774FC001B022847
:1028E000F6D9DDE60038024060004742194A936895
:1028F00003F00C03042B10B503D0082B03D01648AB
:1029000010BD164810BD5168536801F03F0113F423
:10291000800F47F6C074536894FAA4F0B0FA80F0C0
:1029200003EA040323FA00F314BF0C480A48B0FB7F
:10293000F1F05843074B4FF440325B6892FAA2F231
:10294000B2FA82F203F44033D34001335B00B0FBB0
:10295000F3F010BD003802400024F40000127A00A9
:10296000564B1A6802F00F028A422DE9F0410546E3
:102970000E4630D32A68940737D4D0073DD44F4B46
:102980001A6802F00F029642C0F088802A68510748
:1029900000F18C80130707D5494A2969936823F40D
:1029A000604343EAC1039360FFF7A0FF444BF0226A
:1029B0009B6892FAA2F2B2FA82F203F0F003D340DB
:1029C000404AD35CD840404B18600F20FEF7F0FB24
:1029D0000020BDE8F081CAB21A701B6803F00F0333
:1029E0009942C7D00120BDE8F0813549A8688B68BD
:1029F00023F0F00303438B60BFE76A68304B012A82
:102A00001ED11B6813F4003FECD02D4CA36823F0BB
:102A100003031343A360FFF7D5FB6B68012B074645
:102A200041F2883816D1A36803F00C03042BA6D01A
:102A3000FFF7C8FBC01B4045F5D90320BDE8F08176
:102A4000911E01291B6802D813F0007FDCE713F008
:102A5000020FD9E7022B0AD1A36803F00C03082B5D
:102A60008DD0FFF7AFFBC01B4045F5D9E5E7032B41
:102A70000FD1A36803F00C030C2B80D0FFF7A2FB4F
:102A8000C01B4045F5D9D8E7FFF79CFBC01B40456C
:102A9000D3D8A36813F00C0FF6D170E7F2B21A7016
:102AA0001B6803F00F039E429CD16FE70449E8685E
:102AB0008B6823F4E05303438B606BE7003C0240D8
:102AC00000380240CBC00008A0010020084B4FF4A2
:102AD000E0529B6892FAA2F2B2FA82F203F4E05357
:102AE000D340044AD35C044A1068D840704700BF02
:102AF00000380240DBC00008A0010020084B4FF462
:102B000060429B6892FAA2F2B2FA82F203F4604346
:102B1000D340044AD35C044A1068D840704700BFD1
:102B200000380240DBC00008A00100200F23036032
:102B30000B4B9A6802F0030242609A6802F0F002BE
:102B400082609A6802F4E052C2609B68DB0803F47A
:102B5000E0530361034B1B6803F00F030B607047E6
:102B600000380240003C0240036A23F00103036284
:102B7000036A70B5446882690D6822F073022A43C3
:102B80008D6823F002032B430A4DA8420BD1CD6878
:102B90008E6923F008032B434D6924F440743543B8
:102BA00023F004032C43446082614A684263036259
:102BB00070BD00BF00000140036A23F4807303620C
:102BC000036A70B54468C2690D6822F073022A4333
:102BD0008D6823F4007343EA05230B4DA8420DD101
:102BE000CD688E6923F4006343EA05234D6924F41C
:102BF0004054354323F4806344EA05144460C261C1
:102C00004A68C263036270BD00000140036A23F496
:102C100080530362036A30B54468C2690D6822F4C8
:102C2000E64242EA05228D6823F4005343EA053365
:102C3000064DA84202BF4D6924F4804444EA85143D
:102C40004460C2614A680264036230BD0000014012
:102C500070477047224A036890420ED0B0F1804F0F
:102C60000BD0A2F57C42904207D002F580629042E0
:102C700003D002F58062904219D14A6823F07003B4
:102C80001343174A904204D1CA6823F44073134394
:102C900018E0B0F1804FF7D0124A9042F4D002F51C
:102CA00080629042F0D002F580629042ECD00E4AF1
:102CB0009042E9D002F580629042E5D002F5806250
:102CC0009042E1D003608B68C3620B688362044B5F
:102CD000984204BF0B69036301234361704700BF3F
:102CE00000000140000400400040014010B50446CF
:102CF000A0B190F8393003F0FF021BB980F83820FA
:102D0000FFF7A6FF022384F839302068211DFFF762
:102D1000A1FF012384F83930002010BD012010BD2F
:102D200010B50446A0B190F8393003F0FF021BB98A
:102D300080F83820FFF78DFF022384F839302068AF
:102D4000211DFFF787FF012384F83930002010BDD3
:102D5000012010BD036A23F010030362036A70B5FB
:102D6000446882690D6822F4E64242EA05228D68D1
:102D700023F0200343EA05130B4DA8420DD1CD6883
:102D80008E6923F0800343EA05134D6924F44064FF
:102D9000354323F0400344EA8504446082614A6875
:102DA0008263036270BD00BF0000014038B590F837
:102DB0003830012B04464FF0020025D0012384F85F
:102DC000383084F839000C2A18D8DFE802F00717E9
:102DD00017171E1717172F17171740002068FFF730
:102DE000C3FE236809699A6942F008029A619A69E8
:102DF00022F004029A619A690A439A610123002031
:102E000084F8393084F8380038BD2068FFF7A2FF15
:102E1000236809699A6942F400629A619A6922F406
:102E200080629A619A6942EA0122E6E72068FFF728
:102E3000C3FE23680969DA6942F00802DA61DA69D7
:102E400022F00402DA61DA690A43DA61D6E720681F
:102E5000FFF7DCFE23680969DA6942F40062DA618F
:102E6000DA6922F48062DA61DA6942EA0122ECE787
:102E7000036A10B501248C4023EA04030362036A49
:102E80008A401A43026210BD10B504460122006850
:102E9000FFF7EEFF2368064A934202BF5A6C42F4E2
:102EA00000425A641A6842F001021A60002010BD04
:102EB00000000140FFF7E8BF036A10B504248C400E
:102EC00023EA04030362036A8A401A43026210BDC4
:102ED00010B5044604220068FFF7EEFF23685A6C21
:102EE00042F400425A641A6842F001021A6000205B
:102EF00010BD00002DE9F0470668C2683369C1695A
:102F000023F4405313433361044683680069F26835
:102F10000343606922F41642034322F00C020B4380
:102F20001343F3607369A26923F440731343B1F54B
:102F3000004F73617A4B7CD19E4203D003F58063CE
:102F40009E4244D1FFF7DAFD192505FB00F36068C6
:102F50004FF064094000B3FBF0F3B3FBF9F34FEA21
:102F60000318FFF7CBFD636868435B00B0FBF3F722
:102F7000FFF7C4FD636868435B00B0FBF3F3B3FB8A
:102F8000F9F309FB1373DB003233B3FBF9F35B0096
:102F900003F4F877FFF7B2FD626868435200B0FBB4
:102FA000F2FAFFF7ABFD636868435B00B0FBF3F335
:102FB000B3FBF9F309FB13A3DB003233B3FBF9F3E3
:102FC00003F0070343443B44B360BDE8F087FFF7D9
:102FD0007DFD192505FB00F360684FF06409400092
:102FE000B3FBF0F3B3FBF9F34FEA0318FFF76EFD01
:102FF000636868435B00B0FBF3F7FFF767FD636846
:1030000068435B00B0FBF3F3B3FBF9F309FB137305
:10301000DB003233B3FBF9F35B0003F4F877FFF71F
:1030200055FD626868435200B0FBF2FAFFF74EFDAF
:10303000B9E79E4202D03B4B9E4240D1FFF75EFD76
:10304000676819254FF0640905FB00F3BF00B3FB67
:10305000F7F3B3FBF9F31F01FFF750FD6368684313
:103060009B00B0FBF3F8FFF749FD636868439B00E2
:10307000B0FBF3F3B3FBF9F309FB13831B0132330A
:10308000B3FBF9F303F0F008FFF738FD626868431B
:103090009200B0FBF2FAFFF731FD636868439B00D2
:1030A000B0FBF3F3B3FBF9F309FB13A31B013233BA
:1030B000B3FBF9F303F00F0343EA080383E7FFF7D9
:1030C00005FD676819254FF0640905FB00F3BF0093
:1030D000B3FBF7F3B3FBF9F31F01FFF7F7FC6368EA
:1030E00068439B00B0FBF3F8FFF7F0FC63686843AC
:1030F0009B00B0FBF3F3B3FBF9F309FB13831B0154
:103100003233B3FBF9F303F0F008FFF7DFFC62683A
:1031100068439200B0FBF2FAFFF7D8FCBDE700BFAE
:103120000010014000140140704710B5044640B340
:1031300090F8393003F0FF021BB980F83820FFF710
:10314000F3FF2268242384F83930D36823F4005332
:10315000D3602046FFF7CEFE23681A6922F490421E
:103160001A615A6922F02A025A61DA6842F400525E
:10317000DA6000202023E06384F8393084F83A30A4
:1031800010BD012010BD7FB50F23019302230293D0
:103190004FF480520023032101A803930492059366
:1031A000FFF7DEFBB0FA80F0400907B05DF804FBE2
:1031B0000F49D1F8883043F47003C1F888300D4BC3
:1031C0001A68002042F001021A6098601A6822F022
:1031D000847222F480321A60074A5A601A6822F414
:1031E00080221A60D8604FF000638B60704700BF88
:1031F00000ED00E0003802401030002400B58FB030
:103200001C4B002100911A6C42F080521A641B6C16
:10321000194A03F080530093009B0191136823F433
:10322000404343F400431360136803F440430193A5
:10323000019B01230293C0B94FF48033039302230F
:1032400008934FF48003099304230A930C930823F3
:10325000C8220DEB03000B920D93FFF7B3F938B9B9
:10326000FFF791FF0FB05DF804FB4FF4A023E5E7F3
:103270000020F7E7003802400070004010B58EB023
:1032800000241A4B00941A6C42F080521A641B6C92
:10329000174A03F080530093009B0194136823F4B2
:1032A000404343F4004313601368039403F4404322
:1032B0000193019B09940323029301230593102397
:1032C00006930223C822089308230B920DEB0300F8
:1032D00004220A930C920D93FFF774F918B9FFF7C3
:1032E00052FF0EB010BD2046FBE700BF0038024081
:1032F0000070004008B50120FFF780FF18B9FFF704
:10330000BDFF00B9FEE708BD174A1849936803F0EE
:103310000C03042B10B50DD0082B0DD0144B0B60F3
:10332000114B144A9B68C3F30313D25C0B68D34060
:103330000B6010BD104BF2E754685068526863028E
:10334000C2F3881200F03F004CBF0B4B084BB3FB9D
:10335000F0F35343044A5268C2F30142013252006F
:10336000B3FBF2F3DBE700BF00380240A00100200E
:103370000024F400CBC0000800127A00704700005F
:10338000014B586A704700BF000C0040054B1B689A
:10339000DA6822F00202DA605863DA6842F0020268
:1033A000DA60704780160020034B1A68536943F0B7
:1033B00002035361704700BF80160020034B1A6858
:1033C000D36823F00203D360704700BF801600204B
:1033D000024B1B686FF002021A61704780160020D2
:1033E0002DE9F0410546154B45F8043B04460F46D0
:1033F000102604F120081C220021284601F0FEFEC0
:1034000032460021404601F0F9FE3246002104F127
:10341000300001F0F3FE3246002104F1400001F0DB
:10342000EDFE2346064A39464046FDF7A9FD2846EB
:10343000394600F00CFB2046BDE8F08134C100089D
:103440006535000810B5084B044640F8203BFDF7F1
:1034500059FE04F14000FDF70DF804F13000FDF7CE
:1034600009F8204610BD00BF34C1000810B504465D
:10347000FFF7E8FF2046FEF7D7F8204610BD884248
:1034800038B504460D460AD0FCF7F4FF3CB1EB68B2
:103490001BB15B68294620469847EB68E3602046ED
:1034A00038BDF0B50F4685B0044600F0A5FDFD68B7
:1034B00004F13006203465B139463046FFF7DFFFAE
:1034C000012201212046FDF7E3FC00F0C1FD05B01B
:1034D000F0BD10222946684601F090FE694630464C
:1034E000FFF7CDFF6846FCF7C5FF2A46E9E7F0B5D0
:1034F0000F4685B0044600F07FFDFD6804F14006EC
:10350000203465B139463046FFF7B9FF0122022168
:103510002046FDF7BDFC00F09BFD05B0F0BD10227C
:103520002946684601F06AFE69463046FFF7A7FF64
:103530006846FCF79FFF2A46E9E70000C36810B51C
:1035400004462BB940F20E220449054800F026FD3E
:10355000E36820461B68BDE810401847E3C0000838
:1035600027C10008012908B502D0022906D008BDEC
:10357000C36B13B13030FFF7E1FF08BDC36C002B04
:10358000FBD04030F7E703681B69184703689B6965
:10359000184703689B6A18474FF0FF3070471120A7
:1035A000704770477047A0F1BC00FFF7FBBFA0F168
:1035B000BC00FFF7F7BF00F0E7B8A0F1BC00FFF7D1
:1035C000FABF00F0E4B8A0F1BC00FFF7FABF0000BA
:1035D00038B504461D46049B00F0E8F8294604F17E
:1035E000BC0000F083FC064B03F10802226003F1EB
:1035F00028028433C4F8BC20C4F8C030204638BD4B
:103600003CC1000870B5D0E90823D0E90245064660
:1036100012196B4100F068F8736B2BB106F12800AA
:103620001B68BDE87040184770BDD0B5044616460B
:103630001F4600F0E1FC204600F060F8C4E908678E
:10364000A06900F091FB321847EB0103204600F01F
:103650004BF8BDE8D04000F0FBBC7FB5044600F05D
:10366000CBFC204600F04AF8636B13B194F8383075
:10367000E3B904F128066D4610220021684601F0E6
:10368000BDFDAE420BD03046FCF7F4FE3EB1039BCD
:103690001BB15B68694630469847039B63632846C5
:1036A000FCF7E8FE00F0D4FC04B070BD00F068FA4E
:1036B000DFE703689B681847094B10B500220360D9
:1036C0000023C0E90223002303614361044600F0A4
:1036D0006FFA0449A06100F0D5FA204610BD00BF82
:1036E000E4C10008B336000807B5009000F10801F6
:1036F000806900F0F4FA03B05DF804FB00F1080102
:10370000806900F016BB000010B5034B036004464F
:10371000FFF7F4FF204610BDE4C100087047704772
:1037200010B480B1146853680CB9DA070BD513F0E4
:10373000010F4FEA63031CBFC258145918442346B3
:103740005DF8044B18475DF8044B7047090170B5EC
:1037500001F198050544EB6883B14418D4F8A4300E
:103760002BB940F20E220649064800F017FCD4F8A7
:10377000A43028461B68BDE87040184770BD00BFE4
:10378000E3C0000827C100084C30FEF7BBBC10B5F1
:103790004C300C46FEF7C8FC204610BDC36810B57F
:1037A00004460BB19B689847204610BD2DE9F04FA9
:1037B00087B0002592460095024601950446894649
:1037C0009B469DE80300324B42F8083B314B82E8B0
:1037D0000300236148F2070363612F4BE561A46195
:1037E00022626362BFF36F8FBFF34F8F102284F8A2
:1037F000285084F8295004F12C0001F0FFFC04F15A
:103800004C062946102204F13C0001F0F7FC04F1BB
:10381000980829464C22304601F0F0FC04F1A80734
:1038200029461022404601F0E9FC2946102238467C
:1038300001F0E4FC10222946C4F8B8B002A801F057
:10384000DDFC02A94046FFF71AFE02A8FCF712FEB3
:103850001022294602A801F0D1FC02A93846FFF740
:103860000EFE02A8FCF706FE524649463046FEF719
:1038700047FBD4F8B8103046FEF7ECFB3046224642
:103880000649FEF7EBFB204607B0BDE8F08F00BF0E
:10389000F8C1000801A090E8213700084D37000862
:1038A0002DE9FF410646884656F84C3B17461B68F3
:1038B00005463C01984700F09FFBD8F80C3098343F
:1038C0002C44ABB1E3680BB900F040F94146204607
:1038D000FFF7D5FD012239463046FEF7CBFB00F05D
:1038E000B7FB2B6828465B68984704B0BDE8F081B9
:1038F000E3680BB100F044F910220021684601F0A2
:103900007DFC69462046FFF7BAFD6846FCF7B2FD2C
:103910000022E0E77FB51A4B036004461022002125
:10392000684601F06BFC002269462046FFF7B8FFAD
:103930006846FCF79FFD10220021684601F05EFCFE
:10394000012269462046FFF7ABFF6846FCF792FD6F
:1039500014F1980608D004F1B805B54204D0103D22
:103960002846FCF787FDF8E704F13C00FFF716FF57
:1039700004F12C00FFF712FF204604B070BD00BF19
:10398000F8C1000810B50446FFF7C4FF2046FDF754
:103990004BFE204610BD10B5044600F02DFB2368F9
:1039A0001BB1237F0BB100F0EBF80023236000F084
:1039B0004FFB204610BD10B5044600F01DFBA0696A
:1039C00000F0D2F900220023C4E90201C4E9042373
:1039D000BDE8104000F03CBB002310B5002203609E
:1039E0000023C0E90223C0E90423044600F0E0F804
:1039F0000123A06123772046FFF7DDFF204610BD9D
:103A000070B50E4604461546FDF79CF9013609D0FF
:103A100020460021FDF7BAF929462046BDE870404E
:103A2000FDF7B0B970BD38B504460D4603685AB10C
:103A30008268136020460121FDF7A8F92946204637
:103A4000BDE83840FDF79EB9C2681B04F1E70022CB
:103A5000FFF7D6BF70B50E4604461546FDF772F95E
:103A6000013606D02A4620460021BDE87040FFF707
:103A7000DABF70BD0022FFF7EDBF000010B50446AD
:103A800001300DD110BD9C4209D120468968FDF757
:103A9000B9FE20460021BDE81040FDF74BBF0C31B8
:103AA000B1F900305A1CEED10248BDE8104000F0D8
:103AB00087BA00BF57C20008884208B508D0431C27
:103AC00006D0013106D0044800F07AFA4FF0FF31F9
:103AD000084608BD0146FBE726C20008B1F90030E0
:103AE0005A1C01D118467047834201D1486870477B
:103AF0000C31F3E7421C10B5044607D0FFF7EEFF88
:103B0000431C044602D1024800F05AFA204610BD78
:103B100037C20008B1F900305A1C01D1184670476D
:103B2000834201D1886870470C31F3E7421C10B51D
:103B3000044607D0FFF7EEFF431C044602D10248BB
:103B400000F03EFA204610BD08C2000808B500F09B
:103B500053FA094B1A884FF6FF739A4204D100F0CA
:103B600077FA064800F02CFA0121034800F08EFA9B
:103B7000BDE8084000F06CBA4C13002068C2000891
:103B800008B500F039FA084B1B8823B900F060FA39
:103B9000064800F015FA0121034800F084FABDE858
:103BA000084000F055BA00BF4C13002095C2000831
:103BB00000487047BCC20008014800F06EB800BF62
:103BC000BCC200080368D0B544685B68D4E90267EA
:103BD00098470022B04242EA00023B4602D200323D
:103BE00047F10103C4E90223D0BD2DE9F0410646A7
:103BF000FFF7E8FF726837685368D2E902012BB318
:103C0000D3E90023994208BF904203D37B69BDE802
:103C1000F0411847141A63EB0105002D08BFB4F1F9
:103C2000E04F13D2121A84183B69204641F1000577
:103C300098473046FFF7C6FF7368D3E90223AB42CB
:103C400008BFA24205D333685B69E0E74FF0E0426A
:103C5000E9E7BDE8F081036810B504461B689847A2
:103C6000636800221A605A60002000210122C3E923
:103C700002011A742046FFF7A5FF2046BDE8104058
:103C8000FFF7B3BF38B543681B7C04460D460BB93C
:103C9000FFF7E1FF63681D6038BD036870B5DB683E
:103CA0000446984763685B68A3B12046FFF78AFF24
:103CB00065686E68D5E90201D6E90023994208BF1C
:103CC000904207D3F3686B602B68002BEAD0B06892
:103CD0009847E7E72046BDE87040FFF786BF2DE92B
:103CE000F84305460C4616461F46DDF8208000F0D6
:103CF00083F92846FFF766FF6968C4F80880C4E9BD
:103D000000674B6800224BB9E36082B94C602846DB
:103D1000FFF76BFFBDE8F84300F09AB9D3E90089DB
:103D20004F4508BF4645EFD31A46DB68EBE7D46042
:103D3000EDE738B505460C4600F05EF96A68536851
:103D4000A34209D1DB6853602846FFF74EFFBDE868
:103D5000384000F07DB91346002BF8D0DA68944261
:103D6000F9D1E268DA60F2E743681B7C10B50446DB
:103D70000BB9FFF770FF2046FFF724FF6368D3E914
:103D8000020110BD08B5FFF7EFFF08BD10B5002315
:103D9000036043600A782F2A04460DD14A785AB14D
:103DA000481C2060194623681A782F2A06D101334F
:103DB000236000F0E9F96060204610BD002AF8D0C9
:103DC000013301312360EEE700687047406808B5B1
:103DD00020B100F089F9431E5842584108BD10B582
:103DE0000446FFF7F3FF10B1606800B1043810BD5E
:103DF000406808B520B100F077F9B0FA80F04009CA
:103E000008BD10B50446FFF7F3FF10B1606800B1BC
:103E1000043810BD4068003018BF012070470020F2
:103E2000704700207047036801221B690021184772
:103E3000036800221B691146184770477047F8B5A0
:103E40000368DB6C0E4604468F1898473546BD4222
:103E500007D0236815F8011B5B6C2046984701309A
:103E6000F5D1236820461B6D9847A81BF8BDF8B50F
:103E70000368DB6C0E4604468F1898473546BD42F2
:103E800008D0236820469B6C9847431C02D005F855
:103E9000010BF4E7236820461B6D9847A81BF8BD6B
:103EA00000207047704700207047002070470000D6
:103EB00010B5054B03604C33044640F8043F00F056
:103EC00033F9204610BD00BFE4C20008A0F1040091
:103ED000EEE700BF10B50446FFF7EAFF2046FDF706
:103EE000A3FB204610BDA0F10400F3E70F4B10B573
:103EF0000022044640F8043B00F0F8F80C4B236025
:103F00005C336360002363610A49204600F075F961
:103F1000606118B1FDF759FB204610BD00F070F943
:103F20000168054800F04CF8F6E700BF8CC40008B3
:103F300064C3000838C300083BC3000810B5074B32
:103F400003F108026433044602604360406900F0F4
:103F5000BFF92046FFF7ACFF204610BD5CC3000848
:103F60000EB477B5036807AD044655F8046BDB6CF7
:103F700098476069019500F07DFA019A60693146C1
:103F800003F048F8236805461B6D204698472846ED
:103F900003B0BDE8704003B07047000070B5044640
:103FA0000D46164600F028F833462A4621460348B7
:103FB000FDF7B8F9BDE87040FDF75EB9C8C3000869
:103FC0000FB413B5084B1A784AB9012405A904980F
:103FD0001C700191FDF77CF92046FDF7F1FA02B063
:103FE000BDE8104004B0704768130020EFF3108064
:103FF000C04300F00100704738B5FFF7F7FF0546F2
:1040000072B60E4C236823B980F001030C4ADBB270
:1040100013702368013304D143220A490A48FFF789
:10402000BDFF23682BB125B1472206490748FFF79A
:10403000B5FF23680133236038BD00BF6C13002037
:1040400069130020F9C3000837C400085DC40008E4
:1040500010B50A4C236883B1FFF7C8FF20B158227E
:1040600007490848FFF79AFF2368013B236023684C
:104070001BB9054B1B7803B962B610BD6C13002049
:10408000F9C300085DC400086913002038B505466F
:104090000C46FFF7B1FF29880C44A4B22C80FFF72F
:1040A000D7FF204638BD70B505460E46FFF7A4FF82
:1040B0002C88A41BA4B22C80FFF7CAFF204670BD39
:1040C00070B50446FFF774FD0646FFF75BFE054634
:1040D0003046FFF757FE401BA042F9D370BD4FF4A6
:1040E0007A735843FFF7ECBF007B704738B504463E
:1040F0000A4B0360002343600D46A1600273084829
:10410000FCF7DCF945B1074B1A6862601C60044893
:10411000FCF7D4F9204638BD6560F8E77CC4000898
:10412000741300207013002010B50F4B0360044679
:104130000E48FCF7C3F9A3682BB10D4A13689C42E3
:104140000CD1636813600948FCF7B8F9237B13B9F5
:10415000201FFDF76BFA204610BD13465A689442A3
:10416000FBD162685A60EEE77CC40008741300203B
:104170007013002010B50446FFF7D6FF2046FDF768
:1041800053FA204610BD000070B506460C480D4697
:10419000FCF794F90B4B1C685CB1A06870B12A461F
:1041A000314601F01BFC48B9A06801F0A9FB85422B
:1041B00004D10348FCF782F9204670BD6468EBE740
:1041C0007413002070130020036870B51B6901226E
:1041D000002104469847051E0DDB236802221B6957
:1041E0000021204698472368064629461B6900227D
:1041F000204698473546284670BDFDF7E9B90000CE
:10420000014B1868704700BFA401002070B559B178
:1042100005460C4610B1836B002B3CD0636ED8076B
:1042200005D5B4F90C302BB90026304670BDA389F2
:1042300099053CD52146284600F052F8E36A064627
:1042400033B1E169284698470028B8BF4FF0FF36E0
:10425000A3891A0622D4216B41B104F1400399428B
:1042600002D0284606F094FD00232363616C21B13F
:10427000284606F08DFD0023636400F0D3F9636ED9
:104280000022DB07A2810ED5A06D00F0DBFD00F05F
:10429000CFF9304670BD00F045F9BFE721692846E7
:1042A00006F076FDD7E7A06D00F0D0FDECE7A06D3D
:1042B00000F0CAFDB4F90C30002BBBD1666E16F0CD
:1042C0000106B1D1A06D00F0C1FD304670BD00BF48
:1042D000024B01461868FFF799BF00BFA4010020F8
:1042E000B1F90C309AB22DE9F0410D461107804624
:1042F0003AD46A6843F40063002AAB816FDDAC6A8C
:10430000002C49D000229BB2D8F80060C8F80020E9
:1043100013F4805267D02A6D5F0705D569682B6B4F
:10432000521A0BB1EB6BD21A0023E9694046A04741
:10433000441C3CD0B5F90C302A692A6023F4006390
:104340000022AB81DB046A6047D4296BC8F80060A7
:1043500011B305F14003994202D0404606F018FD22
:1043600000202863BDE8F0812E69AEB12C682E6074
:1043700091070CBF6B690023A41BAB600AE02346C6
:1043800032466F6AE9694046B8470028A4EB00044A
:10439000064404DD002CF2DC0020BDE8F081AB898E
:1043A00043F04003AB814FF0FF30BDE8F081D8F817
:1043B00000401D2CF3D8194BE340DB4313F00103FD
:1043C000EDD1B5F90C206B6022F400632969AB8153
:1043D000DA042960B9D5002CB7D12865B5E7EA6BB6
:1043E000002A8CDCD8E70123E9694046A047431C3A
:1043F000024602D0AB89AC6A8EE7D8F80030002BB9
:10440000F8D01D2B01D0162B02D1C8F80060C3E7ED
:10441000AB8943F04003AB81BDE8F081010040204F
:1044200038B50D46044608B1836BBBB1B5F90C0035
:1044300088B16B6EDB0701D4810517D5204629466C
:10444000FFF74EFF6B6EDA07044602D4AB899B057B
:1044500007D5204638BD0446204638BD00F062F836
:10446000E4E7A86D00F0F2FC204638BDA86D00F02E
:10447000EBFCE3E720B1054B01461868FFF7D0BF1E
:10448000034B0449186800F089BC00BFA401002058
:10449000D0C4000821440008014900F07FBC00BFDF
:1044A0000D42000810B5002304468181C2810360DB
:1044B0004360836043660361436183611946082258
:1044C0005C3000F09BFE07480749084A084B206211
:1044D000E4616162A262E36204F15800BDE8104049
:1044E00000F0AEBC8D550008B1550008ED55000830
:1044F0000D56000870B54A1E682505FB02F50E46EC
:1045000005F1740106F040FC044640B100210C3076
:10451000666005F168022160A06000F06FFE204631
:1045200070BD00BF10B50446124800F08DFCA26BB0
:10453000D2B904F53B731048C4F8E8320321C4F83B
:10454000E022E063C4F8E41260680421FFF7AAFFE8
:1045500001220921A068FFF7A5FF02221221E068CD
:10456000FFF7A0FF0123A3630248BDE8104000F05D
:104570006DBC00BFC81600209944000870B50646FF
:10458000264800F061FC264B1D68AB6B002B33D036
:1045900005F538756B68AC68013B05D528E0013B33
:1045A0005A1C04F1680423D0B4F90C20002AF6D177
:1045B00000254FF6FF720123E281A38104F1580028
:1045C000656600F03DFC154800F040FC2560A560E4
:1045D000656025616561A5612946082204F15C00DA
:1045E00000F00CFE256365636564A564204670BD1C
:1045F0002C682CB12546CDE72846FFF793FFC7E787
:1046000004213046FFF776FF044628600028F1D1E8
:10461000024800F01BFC0C233360E7E7DC160020A7
:10462000D0C40008014800F00FBC00BFDC16002019
:10463000014800F00BBC00BFDC160020F0B51346AB
:1046400083B00F4601AA1946064603F00FFE002864
:104650002FD005463046FFF791FF0446002828D0AA
:1046600039464FF4DB73019A304600F015FE071E01
:1046700030DB636EDB0715D51C491D481D4A1E4BF8
:104680006162E905E781A581E4612062A262E362DB
:1046900013D4636EDA0702D4A3899B0514D5204690
:1046A00003B0F0BDA3899805E6D4A06D00F0CCFB63
:1046B000E2E70024204603B0F0BD3046022300228A
:1046C000214600F023F8E4E7A06D00F0BFFB204690
:1046D00003B0F0BD0025FFF7A5FFA581A06D00F098
:1046E000B1FB2C46FFF7A4FFD9E700BFB155000886
:1046F0008D550008ED5500080D560008024B0A467E
:1047000001461868FFF79ABFA401002000F000B826
:104710002DE9F04F0C4691B091461F46064610B168
:10472000836B002B67D0636E13F0010FA38902D156
:104730009D0540F1B28003F48473B3F5847F00F0EB
:10474000B680D4F82880B8F1000F00F0BA80012FAD
:1047500038D0022F0ED06FB1636E1622D9073260A7
:1047600002D4A3899A0529D54FF0FF35284611B008
:10477000BDE8F08F4FF0000A23695546002B00F08A
:104780002D81B4F90C3040F61A019AB20A4208D1D0
:1047900052053AD4A74A904500F0258143F40063BE
:1047A000A38121463046FFF73BFE002800F09B80A6
:1047B000636ED907D8D4A3899A05D5D4A06D00F02B
:1047C00045FBD1E721463046FFF72AFEA38913F4C3
:1047D000805200F0E180256D5F0779D4180740F121
:1047E000D380226823690AB1D21A1544A9444FF034
:1047F000010A0027C2E7FFF795FE94E7A3894FF46B
:10480000806243F48063A381E264002F40F0CD8096
:10481000CB46BAF1000F40F0B980A389DB0440F128
:10482000F680206D6268216B851A9646002900F09B
:10483000F980E36BED1A15442069A26B121AAD1AC8
:104840001344AB456CDBEA185A4569D9ABEB050557
:1048500028445B1B84E8090041B104F140039942FC
:1048600002D0304606F094FA00232363A38923F094
:104870002003A3810822002104F15C0000F0BEFCAB
:10488000656E15F0010503D1A3899B0540F1A28057
:104890000025284611B0BDE8F08FA06D00F0D4FAD5
:1048A000A38903F48473B3F5847F7FF44AAF214670
:1048B0003046FFF7B5FDD4F82880B8F1000F7FF43B
:1048C00046AF636E1D22D80732607FF54AAF4BE7D3
:1048D000D4F804E0236BA5EB0E05002B54D0E26B5B
:1048E0002369AD1A82E73B464A46E1693046C04734
:1048F00001303FF45DAF216B41B104F140039942B7
:1049000002D0304606F044FA00232363A3892269CB
:10491000226023F402630021A38161600822ABE7D7
:10492000E56CE1696D4205EA0B052A460023304635
:10493000C04701303FF435AF2369216B236000236A
:10494000636041B104F14003994202D0304606F061
:104950001FFA00232363A389BBEB050B23F020037D
:10496000A38187D02146304600F0B6FC00287FF4B2
:1049700018AF63689B453FF614AF2268A3EB0B03A7
:104980005A4484E80C0075E723692FE7216B00295E
:1049900046D06268E36B4EE7E1693B463046C0476C
:1049A000411C05460ED0A38916E701AAB4F90E10E2
:1049B000304600F041F800287FF4F3AE059B09EB88
:1049C000030B26E7636EDA073FF5CEAEA3899B059E
:1049D0003FF5CAAEA06D00F039FAC7E62146304671
:1049E00000F064FACDE6B4F90E100029FFF6D6AE59
:1049F00001AA304600F020F830B9029B03F470435E
:104A0000B3F5004F3FF4FAAEB4F90C30C6E65246A7
:104A10000123E1693046C047451C7FF403AFC0E67F
:104A2000D4F804E0236820691B1AED1A00217344AE
:104A300007E700BFED55000838B50B46074C0546A3
:104A40001146184600232360FCF758FD431C00D094
:104A500038BD2368002BFBD02B6038BDE01600204A
:104A60009368002B73D02DE9F04F8B8983B00C46EF
:104A700019070090164626D5226922B313F00200CA
:104A800035682CD04FF00009B04FC846B246B84543
:104A900043464A4628BF3B460098B8F1000F50D025
:104AA000E169666AB047002858DDDAF808301B1A59
:104AB0008144A8EB0008CAF80830002BE7D1002099
:104AC00003B0BDE8F08F2146009802F0A9FB002852
:104AD00040F03381A389356813F00200D2D113F07E
:104AE000010945D14F46019637B39A05D4F808809D
:104AF00040F183804745C346C0F0AB8013F4906F0C
:104B000040F0AC802068BA465A46494600F012FB95
:104B1000A2682368A2EB08025B44A2602360019AAA
:104B20009368A3EB0A03D144A7EB0A079360002B19
:104B3000C5D0A389002FD8D1D5F800906F6808356B
:104B4000D2E7D5F80090D5F8048008359FE700201B
:104B5000704721460098FFF763FC70B3B4F90C303E
:104B600043F040034FF0FF30A38103B0BDE8F08F66
:104B7000814633464E46A8469A464D464EB380B3CC
:104B8000206823696269B145CB4628BFB346984285
:104B90005F4604D9A36813449B4500F3A680934560
:104BA0004BDB1346676AE16900982A46B847071E3F
:104BB000D4DDB9EB0709CCD00120DAF80830DB1BD3
:104BC0003D44F61BCAF80830002B3FF478AF002EA6
:104BD000D5D108F1080313E9600098460833002E88
:104BE000F9D032460A21284600F0BAF9002800F030
:104BF000A1800130A0EB0509C2E720682369984233
:104C000002D863699F425DD2B84528BFB846424684
:104C1000494600F08FFAA3682268A3EB08034244D8
:104C2000A36022600BB1C24679E721460098FFF7E6
:104C3000F7FB002892D1C24671E75A46294600F098
:104C400079FAA2682368A2EB0B025B44A26023609E
:104C5000AFE72068B846BA46BB4655E762692068A8
:104C6000216902EB4208A0EB010A08EBD8780AF1AF
:104C700001004FEA680838444045424684BF8046F8
:104C800042465B0544D51146009806F07DF8834600
:104C9000002855D05246216900F0B2F9A38923F4C7
:104CA000906343F08003A3810BEB0A00A8EB0A0397
:104CB000C4F810B0C4F814802060A360B846BA46A7
:104CC000BB4621E76FF00041B94228BF39464A464A
:104CD00091FBF3F10098666A03FB01F3E169B047C9
:104CE000B0F1000A3FF71BAF38E71A462946019397
:104CF00000F020FA2268019B00981A4422602146A5
:104D0000FFF78EFB019B00287FF428AF1F4650E77A
:104D1000009806F03BF883460028C5D1009D216924
:104D2000284606F035F8B4F90C300C2223F0800345
:104D30002A6015E706F1010922E74FF0FF30BFE6D0
:104D4000009A0C231360B4F90C3009E700FCFF7FD4
:104D50002DE9F04110F538771BD0884600267D6894
:104D6000BC68013D0FD4A389012B05F1FF3506D99D
:104D7000B4F90E300133204601D0C04706436B1C06
:104D800004F16804EFD13F68002FE8D13046BDE858
:104D9000F0813E463046BDE8F08100BF2DE9F84382
:104DA00010F538771FD0884606464FF000097D6819
:104DB000BC68013D11D4A389012B05F1FF3508D949
:104DC000B4F90E3001332146304602D0C04749EADB
:104DD00000096B1C04F16804EDD13F68002FE6D197
:104DE0004846BDE8F883B9464846BDE8F88300BFA9
:104DF00070B50F4E0F4D761BB61018BF002405D0AE
:104E0000013455F8043B9847A642F9D10A4E0B4DA0
:104E1000761B06F08FFDB61018BF002406D00134B3
:104E200055F8043B9847A642F9D170BD70BD00BF4C
:104E30004C0B00204C0B0020540B00204C0B00208E
:104E4000704700BF704700BF704700BF704700BF8A
:104E500070B50C46B1F90E10002990B015461E46EB
:104E600014DB01AAFFF7E8FD00280FDB029A02F429
:104E70007042A2F50052B2FA82F252094FF48063F6
:104E80004FF4006032602B6010B070BDA289002327
:104E900012F08000336004D0402218462A6010B01F
:104EA00070BD4FF480632B6010B070BD8A8992078B
:104EB0000B4606D501F1430201211A601A615961BE
:104EC0007047F0B583B001AB6A460C460646FFF763
:104ED000BFFF00990546304605F056FFB4F90C3087
:104EE000D8B1019A154F0099F76343F08003A3816D
:104EF0002060206161611AB92B43A38103B0F0BD2A
:104F00003046B4F90E1003F0EBF9A0B1A38923F0F9
:104F1000030343F001031BB2EEE79A05EED423F03E
:104F2000030304F1430243F002030121A381226041
:104F300022616161E2E7B4F90C30DDE799440008D1
:104F4000024B0146186805F01FBF00BFA4010020F6
:104F5000024B0146186805F01BBF00BFA4010020EA
:104F600001F0FF01102A2BDB10F0070F08D010F81A
:104F7000013B013A8B422DD010F0070F42B3F6D11E
:104F8000F0B441EA012141EA014122F007047FF037
:104F900000070023F0E80256083C85EA010586EA8E
:104FA000010685FA47F5A3FA87F586FA47F6A5FACA
:104FB00087F68EB9EED1F0BC01F0FF0102F00702D6
:104FC00032B110F8013B013A83EA010313B1F8D181
:104FD0000020704701387047002D06BF3546033862
:104FE000073815F0010F07D1013015F4807F02BF9B
:104FF000013015F4C03F0130F0BC0138704700BFEC
:10500000844641EA000313F003036DD1403A41D3D3
:1050100051F8043B40F8043B51F8043B40F8043B92
:1050200051F8043B40F8043B51F8043B40F8043B82
:1050300051F8043B40F8043B51F8043B40F8043B72
:1050400051F8043B40F8043B51F8043B40F8043B62
:1050500051F8043B40F8043B51F8043B40F8043B52
:1050600051F8043B40F8043B51F8043B40F8043B42
:1050700051F8043B40F8043B51F8043B40F8043B32
:1050800051F8043B40F8043B51F8043B40F8043B22
:10509000403ABDD2303211D351F8043B40F8043BC2
:1050A00051F8043B40F8043B51F8043B40F8043B02
:1050B00051F8043B40F8043B103AEDD20C3205D3D2
:1050C00051F8043B40F8043B043AF9D2043208D0CA
:1050D000D2071CBF11F8013B00F8013B01D30B883C
:1050E00003806046704700BF082A13D38B078DD01A
:1050F00010F003038AD0C3F10403D21ADB071CBFEC
:1051000011F8013B00F8013B80D331F8023B20F855
:10511000023B7BE7043AD9D3013A11F8013B00F88E
:10512000013BF9D20B7803704B7843708B78837016
:10513000604670478842F0B50DD98B1898420AD264
:105140008418002A51D0224613F8014D02F8014D6F
:105150009942F9D1F0BD0F2A48D941EA00039B07D3
:1051600046D100F1100401F11003154653F8106CFC
:1051700044F8106C53F80C6C44F80C6C53F8086C41
:1051800044F8086C103D53F8046C44F8046C0F2D7F
:1051900003F1100304F11004E8D8A2F1100323F086
:1051A0000F0302F00F0E1033BEF1030F1944034436
:1051B00021D91E1F0D467446043C55F8047B46F861
:1051C000047F032CF8D8AEF1040424F00304043463
:1051D0002144234402F0030262B1013B0A4411F866
:1051E000014B03F8014F8A42F9D1F0BD0346F3E7C2
:1051F0000346F2E7F0BD7246EEE700BF70B48607E3
:1052000046D0541E002A41D0CAB2034602E014F12F
:10521000FF343BD303F8012B9D07F8D1032C2ED983
:10522000CDB245EA05250F2C45EA054519D903F10C
:1052300010022646103E0F2E42F8105C42F80C5C1D
:1052400042F8085C42F8045C02F11002F2D8A4F1C2
:10525000100222F00F0204F00F041032032C13444A
:105260000DD91E462246043A032A46F8045BFAD8B2
:10527000221F22F003020432134404F003042CB171
:10528000C9B21C4403F8011B9C42FBD170BC70479F
:1052900014460346C2E700BF70B50D46084C1146E0
:1052A00006461A46284600232360FCF7D9F9431C1A
:1052B00000D070BD2368002BFBD0336070BD00BFF1
:1052C000E0160020838903F00903092B01D0002098
:1052D0007047FFF7CFB800BFF8B50C46054610B1D0
:1052E000836B002B45D0B4F90C309AB2970407D4E5
:1052F000626E43F4005322F400526266A3819AB2B4
:1053000000219606616031D4500722D5216B61B12E
:1053100004F14003994202D0284605F039FDE36BC1
:10532000636000202063002B3FD12369002B4CD009
:10533000B4F90C70BEB2B3071ED1226922602846B0
:105340006369256AE169A8470028606009DD0020DB
:10535000F8BDD1063ED512072AD443F00403A38139
:10536000E3E7A38919D143F02003A3814FF0FF3075
:10537000F8BDFFF7D7F8B6E71A4B1B4918680123A9
:10538000A38106F00906FFF7E3FC092EA781D4D11B
:1053900021462846FEF7A4FFCFE7002243F0400352
:1053A000A38162604FF0FF30F8BDA36B2360F8BDAE
:1053B00021462846FFF734F80028D7D1B4F90C303D
:1053C000A060A06123F00803C7E721462846FFF745
:1053D0006DFDADE743F0400309222A604FF0FF3036
:1053E000A381F8BDD0C40008C552000800290CBF35
:1053F000022200224FF4806300F000B82DE9F04350
:10540000614C256883B004460F4690461E4615B190
:10541000AB6B002B64D0B8F1020F06D0B8F1010FCE
:1054200000F29F80002EC0F29C80636ED80734D5B6
:1054300021462846FEF7F4FF216B41B104F14003F9
:10544000994202D0284605F0A3FC00232363B4F957
:105450000C300022A26162601A063AD423F44A6337
:1054600023F00303B8F1020FA3811DD001AB6A46FC
:1054700021462846FFF7ECFCA3891843A081002EA3
:1054800032D1009E3046FFF75BFD074600286BD007
:10549000A38943F08003A38128E0A3899905C7D499
:1054A000A06DFFF7D1FCC3E70025616E002604F173
:1054B000430243F002030120A660CE07A3812260CD
:1054C0002261606101D498053ED5284603B0BDE84D
:1054D000F0832169284605F05BFCB4F90C30BDE788
:1054E0002846FFF71FF896E7002FCBD0AB6B002BB9
:1054F00033D0009BB4F90C2027609E421CBF42F4BD
:105500000062A281B8F1010F04BF42F00102A28142
:1055100092B212F00803276166610ED0D1071AD546
:10552000656E7642002315F00105A661A36009D0DF
:105530000025284603B0BDE8F083A360656E15F032
:105540000105F5D19305C0D4A06DFFF77FFC284677
:1055500003B0BDE8F083A660F0E72846FEF7E2FF5F
:10556000C7E74FF0FF35B0E7DDF80090B14504D054
:105570004846FFF7E5FC074620B9B4F90C304FF078
:10558000FF3592E74E4683E7A401002010B50C4694
:10559000B1F90E1003F0F8F9002803DB236D034482
:1055A000236510BDA38923F48053A38110BD00BFE0
:1055B0002DE9F0411646B1F90C201F46D3050C46E3
:1055C000054607D500220223B1F90E1002F0B6FEFF
:1055D000B4F90C20B4F90E1022F48052A2813B469B
:1055E00032462846BDE8F04101F004BE10B50C4635
:1055F000B1F90E1002F0A2FEA389421C0EBF23F4E3
:10560000805343F480532065A38110BDB1F90E107F
:1056100001F06ABE00000000000000000000000071
:10562000A2EB0300704700BF02780B78012A28BF65
:105630009A42F5D16DE9044540EA0104CDE90267DB
:105640006FF0000C4FEA447212B380EA010414F0C8
:10565000070F6AD100F0070420F0070004F00305EB
:1056600021F007014FEAC505F0E8042314F0040F08
:10567000F1E804670CFA05F462EA040266EA04063B
:105680000AD063EA0403624667EA0407664603E059
:10569000F0E80423F1E8046782FA4CF582EA060494
:1056A000A4FA8CF46CBB83FA4CF583EA0705A5FADF
:1056B0008CF595B950E9022351E9026782FA4CF55D
:1056C00082EA0604A4FA8CF483FA4CF583EA07050F
:1056D000A5FA8CF52543DBD09CB92DBAB5FA85F433
:1056E00024F0070427FA04F1DDE9026723FA04F342
:1056F00003F0FF0001F0FF01FDE80445A0EB01000D
:10570000704724BAB4FA84F424F0070426FA04F1AA
:10571000DDE9026722FA04F202F0FF0001F0FF0166
:10572000FDE80445A0EB0100704714F0030F3CD1E5
:1057300010F0030428D150F8082B51F8083B82FAE6
:105740004CF582EA0305A5FA8CF55DB950F8042CF6
:1057500051F8043C82FA4CF582EA0305A5FA8CF56F
:10576000002DE8D02DBAB5FA85F424F0070423FA09
:1057700004F122FA04F202F0FF0001F0FF01FDE85B
:105780000445A0EB010070474FEAC40420F0030079
:1057900050F8082B21F0030151F8083B0CFA04F4EF
:1057A00062EA040263EA0403C9E710F003041AD0B2
:1057B000A1EB040120F00300E40750F8042B06D00D
:1057C0000FD28B785FFAA2F4E41A06D12BB1CB7812
:1057D0005FFAB2F4E41A00D11BB920465DF8104B11
:1057E000704701F1040150F8042BCC0721F00301AC
:1057F00051F8043B48D824D222F07F4482FA4CF579
:1058000094EA1325A5FA8CF50AD165B951F8043B41
:1058100084EA0204B4EB036F0ED150F8042BEBE7DB
:105820004FEA132355E035F07F454DD10878FDE868
:105830000445C0F1000070474FEA126203F0FF0315
:1058400047E002EA1C4482FA4CF594EA1345A5FAB3
:105850008CF50AD165B951F8043B84EA0204B4EB33
:10586000034F0CD150F8042BEBE74FEA134330E021
:1058700015EA1C4528D10B884FEA124229E04FEA6D
:10588000124203EA1C4324E002F0FF0482FA4CF5C2
:1058900094EA1365A5FA8CF50AD165B951F8043B71
:1058A00084EA0204B4EB032F09D150F8042BEBE790
:1058B0004FEA13630DE015F0FF0F05D10B684FEAB7
:1058C000122223F07F4304E04FF00000FDE804457E
:1058D000704712BA1BBA82FA4CF482EA0304A4FAA3
:1058E0008CF5B5FA85F402FA04F203FA04F34FEAF0
:1058F0001260FDE80445A0EB136070470000000053
:1059000090F800F06DE9024520F007016FF0000CFF
:1059100010F0070491F820F040F049804FF00004A7
:105920006FF00700D1E9002391F840F000F1080082
:1059300082FA4CF2A4FA8CF283FA4CF3A2FA8CF3BA
:105940004BBBD1E9022382FA4CF200F10800A4FA21
:105950008CF283FA4CF3A2FA8CF3E3B9D1E9042375
:1059600082FA4CF200F10800A4FA8CF283FA4CF3AC
:10597000A2FA8CF37BB9D1E9062301F1200182FA66
:105980004CF200F10800A4FA8CF283FA4CF3A2FA6C
:105990008CF3002BC6D0002A04BF04301A4612BA7A
:1059A000B2FA82F2FDE8024500EBD2007047D1E97D
:1059B000002304F00305C4F100004FEAC50514F00C
:1059C000040F91F840F00CFA05F562EA05021CBFDD
:1059D00063EA050362464FF00004A9E7002A41D0BC
:1059E00040EA010313F00303F0B425D1032A23D9BD
:1059F00004680D68AC421FD1043A38D0A4F10135D7
:105A000025EA040414F0803F2ED1043004310FE065
:105A100050F8043B0E68A3F10134B34224EA0304B6
:105A200001F1040126D1043A21D014F0803F1BD1AA
:105A3000032A07460D46EBD805780C78AC4202F1F4
:105A4000FF331AD183B114B90EE06BB17AB110F8FB
:105A5000012F11F8014FA24203F1FF33F5D0101BC3
:105A6000F0BC7047104670470020F0BC70471046ED
:105A7000F0BC704729463846DEE72A46EFE700BF0C
:105A80002DE9F04FC3B01D468A4691460446089062
:105A900002F046FC036815931846FFF731FF0E9598
:105AA00014901CB1A36B002B00F06282DAF8643012
:105AB000BAF90C2013F0010F93B202D1990540F10D
:105AC00078829F040AD4DAF8641042F4005321F477
:105AD0000051AAF80C30CAF864109BB21E0740F1BE
